{
  "_format": "hh-sol-artifact-1",
  "contractName": "PaxeerWalletVM",
  "sourceName": "contracts/PaxeerWalletVM.sol",
  "abi": [
    {
      "inputs": [],
      "name": "ReentrancyGuardReentrantCall",
      "type": "error"
    },
    {
      "inputs": [
        {
          "internalType": "address",
          "name": "token",
          "type": "address"
        }
      ],
      "name": "SafeERC20FailedOperation",
      "type": "error"
    },
    {
      "anonymous": false,
      "inputs": [
        {
          "indexed": false,
          "internalType": "string",
          "name": "strategy",
          "type": "string"
        },
        {
          "indexed": false,
          "internalType": "bytes",
          "name": "result",
          "type": "bytes"
        }
      ],
      "name": "AIActionExecuted",
      "type": "event"
    },
    {
      "anonymous": false,
      "inputs": [
        {
          "indexed": false,
          "internalType": "uint256",
          "name": "targetChain",
          "type": "uint256"
        },
        {
          "indexed": false,
          "internalType": "bytes",
          "name": "data",
          "type": "bytes"
        }
      ],
      "name": "CrossChainAction",
      "type": "event"
    },
    {
      "anonymous": false,
      "inputs": [
        {
          "indexed": false,
          "internalType": "bytes32",
          "name": "dataHash",
          "type": "bytes32"
        },
        {
          "indexed": false,
          "internalType": "uint256",
          "name": "dataType",
          "type": "uint256"
        },
        {
          "indexed": false,
          "internalType": "uint256",
          "name": "reward",
          "type": "uint256"
        }
      ],
      "name": "DataContributed",
      "type": "event"
    },
    {
      "anonymous": false,
      "inputs": [
        {
          "indexed": false,
          "internalType": "string",
          "name": "featureName",
          "type": "string"
        },
        {
          "indexed": false,
          "internalType": "bytes",
          "name": "config",
          "type": "bytes"
        }
      ],
      "name": "FeatureActivated",
      "type": "event"
    },
    {
      "anonymous": false,
      "inputs": [
        {
          "indexed": false,
          "internalType": "address[]",
          "name": "guardians",
          "type": "address[]"
        },
        {
          "indexed": false,
          "internalType": "uint256",
          "name": "threshold",
          "type": "uint256"
        }
      ],
      "name": "SocialRecoveryInitiated",
      "type": "event"
    },
    {
      "anonymous": false,
      "inputs": [
        {
          "indexed": true,
          "internalType": "address",
          "name": "target",
          "type": "address"
        },
        {
          "indexed": false,
          "internalType": "uint256",
          "name": "value",
          "type": "uint256"
        },
        {
          "indexed": false,
          "internalType": "bytes",
          "name": "data",
          "type": "bytes"
        },
        {
          "indexed": false,
          "internalType": "bool",
          "name": "success",
          "type": "bool"
        }
      ],
      "name": "TransactionExecuted",
      "type": "event"
    },
    {
      "stateMutability": "payable",
      "type": "fallback"
    },
    {
      "inputs": [
        {
          "internalType": "string",
          "name": "featureName",
          "type": "string"
        },
        {
          "internalType": "bytes",
          "name": "config",
          "type": "bytes"
        }
      ],
      "name": "activateFeature",
      "outputs": [],
      "stateMutability": "nonpayable",
      "type": "function"
    },
    {
      "inputs": [
        {
          "internalType": "uint256",
          "name": "",
          "type": "uint256"
        }
      ],
      "name": "activeFeatures",
      "outputs": [
        {
          "internalType": "string",
          "name": "",
          "type": "string"
        }
      ],
      "stateMutability": "view",
      "type": "function"
    },
    {
      "inputs": [
        {
          "internalType": "string",
          "name": "",
          "type": "string"
        }
      ],
      "name": "aiStrategies",
      "outputs": [
        {
          "internalType": "bytes",
          "name": "",
          "type": "bytes"
        }
      ],
      "stateMutability": "view",
      "type": "function"
    },
    {
      "inputs": [
        {
          "internalType": "address[]",
          "name": "targets",
          "type": "address[]"
        },
        {
          "internalType": "uint256[]",
          "name": "values",
          "type": "uint256[]"
        },
        {
          "internalType": "bytes[]",
          "name": "datas",
          "type": "bytes[]"
        }
      ],
      "name": "batchExecute",
      "outputs": [
        {
          "internalType": "bool[]",
          "name": "successes",
          "type": "bool[]"
        },
        {
          "internalType": "bytes[]",
          "name": "results",
          "type": "bytes[]"
        }
      ],
      "stateMutability": "nonpayable",
      "type": "function"
    },
    {
      "inputs": [],
      "name": "completeSocialRecovery",
      "outputs": [],
      "stateMutability": "nonpayable",
      "type": "function"
    },
    {
      "inputs": [
        {
          "internalType": "uint256",
          "name": "",
          "type": "uint256"
        }
      ],
      "name": "crossChainState",
      "outputs": [
        {
          "internalType": "bytes",
          "name": "",
          "type": "bytes"
        }
      ],
      "stateMutability": "view",
      "type": "function"
    },
    {
      "inputs": [
        {
          "internalType": "address",
          "name": "protocol",
          "type": "address"
        },
        {
          "internalType": "string",
          "name": "action",
          "type": "string"
        },
        {
          "internalType": "bytes",
          "name": "params",
          "type": "bytes"
        }
      ],
      "name": "defiInteract",
      "outputs": [
        {
          "internalType": "bytes",
          "name": "result",
          "type": "bytes"
        }
      ],
      "stateMutability": "nonpayable",
      "type": "function"
    },
    {
      "inputs": [
        {
          "internalType": "string",
          "name": "strategyName",
          "type": "string"
        },
        {
          "internalType": "bytes",
          "name": "parameters",
          "type": "bytes"
        }
      ],
      "name": "executeAIStrategy",
      "outputs": [
        {
          "internalType": "bytes",
          "name": "result",
          "type": "bytes"
        }
      ],
      "stateMutability": "nonpayable",
      "type": "function"
    },
    {
      "inputs": [
        {
          "internalType": "address",
          "name": "target",
          "type": "address"
        },
        {
          "internalType": "uint256",
          "name": "value",
          "type": "uint256"
        },
        {
          "internalType": "bytes",
          "name": "data",
          "type": "bytes"
        }
      ],
      "name": "executeTransaction",
      "outputs": [
        {
          "internalType": "bool",
          "name": "success",
          "type": "bool"
        },
        {
          "internalType": "bytes",
          "name": "result",
          "type": "bytes"
        }
      ],
      "stateMutability": "nonpayable",
      "type": "function"
    },
    {
      "inputs": [
        {
          "internalType": "string",
          "name": "",
          "type": "string"
        }
      ],
      "name": "features",
      "outputs": [
        {
          "internalType": "bool",
          "name": "isActive",
          "type": "bool"
        },
        {
          "internalType": "bytes",
          "name": "config",
          "type": "bytes"
        },
        {
          "internalType": "uint256",
          "name": "activatedAt",
          "type": "uint256"
        }
      ],
      "stateMutability": "view",
      "type": "function"
    },
    {
      "inputs": [],
      "name": "getActiveFeatures",
      "outputs": [
        {
          "internalType": "string[]",
          "name": "",
          "type": "string[]"
        }
      ],
      "stateMutability": "view",
      "type": "function"
    },
    {
      "inputs": [],
      "name": "getBalance",
      "outputs": [
        {
          "internalType": "uint256",
          "name": "",
          "type": "uint256"
        }
      ],
      "stateMutability": "view",
      "type": "function"
    },
    {
      "inputs": [],
      "name": "getTransactionHistory",
      "outputs": [
        {
          "components": [
            {
              "internalType": "address",
              "name": "target",
              "type": "address"
            },
            {
              "internalType": "uint256",
              "name": "value",
              "type": "uint256"
            },
            {
              "internalType": "bytes",
              "name": "data",
              "type": "bytes"
            },
            {
              "internalType": "uint256",
              "name": "executedAt",
              "type": "uint256"
            },
            {
              "internalType": "bool",
              "name": "success",
              "type": "bool"
            }
          ],
          "internalType": "struct PaxeerWalletVM.Transaction[]",
          "name": "",
          "type": "tuple[]"
        }
      ],
      "stateMutability": "view",
      "type": "function"
    },
    {
      "inputs": [],
      "name": "getWalletInfo",
      "outputs": [
        {
          "internalType": "address",
          "name": "owner",
          "type": "address"
        },
        {
          "internalType": "uint256",
          "name": "walletId",
          "type": "uint256"
        },
        {
          "internalType": "uint256",
          "name": "nonce",
          "type": "uint256"
        },
        {
          "internalType": "uint256",
          "name": "contributionBalance",
          "type": "uint256"
        },
        {
          "internalType": "uint256",
          "name": "transactionCount",
          "type": "uint256"
        },
        {
          "internalType": "string[]",
          "name": "activeFeaturesList",
          "type": "string[]"
        }
      ],
      "stateMutability": "view",
      "type": "function"
    },
    {
      "inputs": [
        {
          "internalType": "address",
          "name": "owner",
          "type": "address"
        },
        {
          "internalType": "uint256",
          "name": "walletId",
          "type": "uint256"
        },
        {
          "internalType": "address",
          "name": "factory",
          "type": "address"
        }
      ],
      "name": "initialize",
      "outputs": [],
      "stateMutability": "nonpayable",
      "type": "function"
    },
    {
      "inputs": [
        {
          "internalType": "uint256",
          "name": "targetChain",
          "type": "uint256"
        },
        {
          "internalType": "address",
          "name": "targetAddress",
          "type": "address"
        },
        {
          "internalType": "bytes",
          "name": "data",
          "type": "bytes"
        }
      ],
      "name": "initiateCrossChain",
      "outputs": [],
      "stateMutability": "nonpayable",
      "type": "function"
    },
    {
      "inputs": [
        {
          "internalType": "address",
          "name": "newOwner",
          "type": "address"
        }
      ],
      "name": "initiateSocialRecovery",
      "outputs": [],
      "stateMutability": "nonpayable",
      "type": "function"
    },
    {
      "inputs": [],
      "name": "pendingRecoveryOwner",
      "outputs": [
        {
          "internalType": "address",
          "name": "",
          "type": "address"
        }
      ],
      "stateMutability": "view",
      "type": "function"
    },
    {
      "inputs": [
        {
          "internalType": "uint256",
          "name": "amount",
          "type": "uint256"
        }
      ],
      "name": "receiveContributionReward",
      "outputs": [],
      "stateMutability": "nonpayable",
      "type": "function"
    },
    {
      "inputs": [],
      "name": "recoveryRequestTime",
      "outputs": [
        {
          "internalType": "uint256",
          "name": "",
          "type": "uint256"
        }
      ],
      "stateMutability": "view",
      "type": "function"
    },
    {
      "inputs": [
        {
          "internalType": "address[]",
          "name": "guardians",
          "type": "address[]"
        },
        {
          "internalType": "uint256",
          "name": "threshold",
          "type": "uint256"
        }
      ],
      "name": "setupSocialRecovery",
      "outputs": [],
      "stateMutability": "nonpayable",
      "type": "function"
    },
    {
      "inputs": [
        {
          "internalType": "address",
          "name": "",
          "type": "address"
        }
      ],
      "name": "socialRecoveryGuardians",
      "outputs": [
        {
          "internalType": "bool",
          "name": "",
          "type": "bool"
        }
      ],
      "stateMutability": "view",
      "type": "function"
    },
    {
      "inputs": [],
      "name": "socialRecoveryThreshold",
      "outputs": [
        {
          "internalType": "uint256",
          "name": "",
          "type": "uint256"
        }
      ],
      "stateMutability": "view",
      "type": "function"
    },
    {
      "inputs": [
        {
          "internalType": "address",
          "name": "token",
          "type": "address"
        },
        {
          "internalType": "uint256",
          "name": "amount",
          "type": "uint256"
        },
        {
          "internalType": "address",
          "name": "stakingContract",
          "type": "address"
        }
      ],
      "name": "stakeTokens",
      "outputs": [],
      "stateMutability": "nonpayable",
      "type": "function"
    },
    {
      "inputs": [
        {
          "internalType": "address",
          "name": "",
          "type": "address"
        }
      ],
      "name": "stakedBalances",
      "outputs": [
        {
          "internalType": "uint256",
          "name": "",
          "type": "uint256"
        }
      ],
      "stateMutability": "view",
      "type": "function"
    },
    {
      "inputs": [
        {
          "internalType": "uint256",
          "name": "",
          "type": "uint256"
        }
      ],
      "name": "transactionHistory",
      "outputs": [
        {
          "internalType": "address",
          "name": "target",
          "type": "address"
        },
        {
          "internalType": "uint256",
          "name": "value",
          "type": "uint256"
        },
        {
          "internalType": "bytes",
          "name": "data",
          "type": "bytes"
        },
        {
          "internalType": "uint256",
          "name": "executedAt",
          "type": "uint256"
        },
        {
          "internalType": "bool",
          "name": "success",
          "type": "bool"
        }
      ],
      "stateMutability": "view",
      "type": "function"
    },
    {
      "inputs": [],
      "name": "walletState",
      "outputs": [
        {
          "internalType": "address",
          "name": "owner",
          "type": "address"
        },
        {
          "internalType": "uint256",
          "name": "walletId",
          "type": "uint256"
        },
        {
          "internalType": "address",
          "name": "factory",
          "type": "address"
        },
        {
          "internalType": "bool",
          "name": "initialized",
          "type": "bool"
        },
        {
          "internalType": "uint256",
          "name": "nonce",
          "type": "uint256"
        },
        {
          "internalType": "uint256",
          "name": "contributionBalance",
          "type": "uint256"
        }
      ],
      "stateMutability": "view",
      "type": "function"
    },
    {
      "stateMutability": "payable",
      "type": "receive"
    }
  ],
  "bytecode": "0x6080604052348015600f57600080fd5b5060016000819055506156d2806100276000396000f3fe6080604052600436106101a05760003560e01c80637e027479116100ec578063c350a1b51161008a578063d703851f11610064578063d703851f14610614578063e058972714610651578063e5f1af381461068e578063f7c68af6146106b9576101a1565b8063c350a1b51461057e578063c352dae2146105a7578063ce7a23ee146105d7576101a1565b80639261cc94116100c65780639261cc94146104c4578063a15161df146104ed578063a2c58e9f1461052a578063b76d4fc314610553576101a1565b80637e027479146104315780638246a1d21461045c57806391b1f15114610487576101a1565b8063243e7a87116101595780633f579f42116101335780633f579f42146103625780636248c8c4146103a05780636ac5e15d146103df57806373ba76f614610408576101a1565b8063243e7a87146102df57806326886b2c146103205780632efbc8951461034b576101a1565b8063077d97d7146101a35780630d2d9f85146101e157806312065fe0146102115780631460fa871461023c5780631c05d59b146102795780632094cc94146102a2576101a1565b5b005b3480156101af57600080fd5b506101ca60048036038101906101c591906133c4565b6106e2565b6040516101d8929190613676565b60405180910390f35b3480156101ed57600080fd5b506101f66109fe565b604051610208969594939291906136da565b60405180910390f35b34801561021d57600080fd5b50610226610a75565b604051610233919061373b565b60405180910390f35b34801561024857600080fd5b50610263600480360381019061025e9190613756565b610a7d565b604051610270919061373b565b60405180910390f35b34801561028557600080fd5b506102a0600480360381019061029b9190613783565b610a95565b005b3480156102ae57600080fd5b506102c960048036038101906102c49190613877565b610db5565b6040516102d6919061390a565b60405180910390f35b3480156102eb57600080fd5b506103066004803603810190610301919061392c565b610e6b565b604051610317959493929190613959565b60405180910390f35b34801561032c57600080fd5b50610335610f66565b604051610342919061373b565b60405180910390f35b34801561035757600080fd5b50610360610f6c565b005b34801561036e57600080fd5b50610389600480360381019061038491906139b3565b6111a7565b604051610397929190613a22565b60405180910390f35b3480156103ac57600080fd5b506103c760048036038101906103c29190613877565b611503565b6040516103d693929190613a52565b60405180910390f35b3480156103eb57600080fd5b5061040660048036038101906104019190613756565b6115d8565b005b34801561041457600080fd5b5061042f600480360381019061042a9190613a90565b6117c3565b005b34801561043d57600080fd5b50610446611985565b604051610453919061373b565b60405180910390f35b34801561046857600080fd5b5061047161198b565b60405161047e9190613c1f565b60405180910390f35b34801561049357600080fd5b506104ae60048036038101906104a99190613a90565b611a64565b6040516104bb919061390a565b60405180910390f35b3480156104d057600080fd5b506104eb60048036038101906104e69190613c41565b611cd9565b005b3480156104f957600080fd5b50610514600480360381019061050f919061392c565b611fbd565b604051610521919061390a565b60405180910390f35b34801561053657600080fd5b50610551600480360381019061054c919061392c565b61205d565b005b34801561055f57600080fd5b5061056861210f565b6040516105759190613df3565b60405180910390f35b34801561058a57600080fd5b506105a560048036038101906105a09190613783565b612285565b005b3480156105b357600080fd5b506105bc6123a1565b6040516105ce96959493929190613e15565b60405180910390f35b3480156105e357600080fd5b506105fe60048036038101906105f99190613e7d565b6124d1565b60405161060b919061390a565b60405180910390f35b34801561062057600080fd5b5061063b60048036038101906106369190613756565b61278d565b6040516106489190613f08565b60405180910390f35b34801561065d57600080fd5b506106786004803603810190610673919061392c565b6127ad565b6040516106859190613f6d565b60405180910390f35b34801561069a57600080fd5b506106a3612859565b6040516106b09190613f8f565b60405180910390f35b3480156106c557600080fd5b506106e060048036038101906106db9190613faa565b61287f565b005b606080600160000160009054906101000a900473ffffffffffffffffffffffffffffffffffffffff1673ffffffffffffffffffffffffffffffffffffffff163373ffffffffffffffffffffffffffffffffffffffff1614610778576040517f08c379a000000000000000000000000000000000000000000000000000000000815260040161076f90614065565b60405180910390fd5b610780612ae0565b600160020160149054906101000a900460ff166107d2576040517f08c379a00000000000000000000000000000000000000000000000000000000081526004016107c9906140d1565b60405180910390fd5b835185511480156107e4575082518451145b610823576040517f08c379a000000000000000000000000000000000000000000000000000000000815260040161081a9061413d565b60405180910390fd5b845167ffffffffffffffff81111561083e5761083d612f94565b5b60405190808252806020026020018201604052801561086c5781602001602082028036833780820191505090505b509150845167ffffffffffffffff81111561088a57610889612f94565b5b6040519080825280602002602001820160405280156108bd57816020015b60608152602001906001900390816108a85790505b50905060005b85518110156109ed573073ffffffffffffffffffffffffffffffffffffffff16633f579f428783815181106108fb576108fa61415d565b5b60200260200101518784815181106109165761091561415d565b5b60200260200101518785815181106109315761093061415d565b5b60200260200101516040518463ffffffff1660e01b81526004016109579392919061418c565b6000604051808303816000875af1158015610976573d6000803e3d6000fd5b505050506040513d6000823e3d601f19601f8201168201806040525081019061099f9190614266565b8483815181106109b2576109b161415d565b5b602002602001018484815181106109cc576109cb61415d565b5b602002602001018290528215151515815250505080806001019150506108c3565b506109f6612b26565b935093915050565b60018060000160009054906101000a900473ffffffffffffffffffffffffffffffffffffffff16908060010154908060020160009054906101000a900473ffffffffffffffffffffffffffffffffffffffff16908060020160149054906101000a900460ff16908060030154908060040154905086565b600047905090565b600e6020528060005260406000206000915090505481565b600160000160009054906101000a900473ffffffffffffffffffffffffffffffffffffffff1673ffffffffffffffffffffffffffffffffffffffff163373ffffffffffffffffffffffffffffffffffffffff1614610b28576040517f08c379a0000000000000000000000000000000000000000000000000000000008152600401610b1f90614065565b60405180910390fd5b6040518060400160405280600d81526020017f7969656c645f6661726d696e6700000000000000000000000000000000000000815250600681604051610b6e91906142fe565b908152602001604051809103902060000160009054906101000a900460ff16610bcc576040517f08c379a0000000000000000000000000000000000000000000000000000000008152600401610bc390614361565b60405180910390fd5b610c1e600160000160009054906101000a900473ffffffffffffffffffffffffffffffffffffffff1630858773ffffffffffffffffffffffffffffffffffffffff16612b30909392919063ffffffff16565b60008273ffffffffffffffffffffffffffffffffffffffff1684604051602401610c48919061373b565b6040516020818303038152906040527fa694fc3a000000000000000000000000000000000000000000000000000000007bffffffffffffffffffffffffffffffffffffffffffffffffffffffff19166020820180517bffffffffffffffffffffffffffffffffffffffffffffffffffffffff8381831617835250505050604051610cd291906143bd565b6000604051808303816000865af19150503d8060008114610d0f576040519150601f19603f3d011682016040523d82523d6000602084013e610d14565b606091505b5050905080610d58576040517f08c379a0000000000000000000000000000000000000000000000000000000008152600401610d4f90614420565b60405180910390fd5b83600e60008773ffffffffffffffffffffffffffffffffffffffff1673ffffffffffffffffffffffffffffffffffffffff1681526020019081526020016000206000828254610da7919061446f565b925050819055505050505050565b600d818051602081018201805184825260208301602085012081835280955050505050506000915090508054610dea906144d2565b80601f0160208091040260200160405190810160405280929190818152602001828054610e16906144d2565b8015610e635780601f10610e3857610100808354040283529160200191610e63565b820191906000526020600020905b815481529060010190602001808311610e4657829003601f168201915b505050505081565b60088181548110610e7b57600080fd5b90600052602060002090600502016000915090508060000160009054906101000a900473ffffffffffffffffffffffffffffffffffffffff1690806001015490806002018054610eca906144d2565b80601f0160208091040260200160405190810160405280929190818152602001828054610ef6906144d2565b8015610f435780601f10610f1857610100808354040283529160200191610f43565b820191906000526020600020905b815481529060010190602001808311610f2657829003601f168201915b5050505050908060030154908060040160009054906101000a900460ff16905085565b600a5481565b6040518060400160405280600f81526020017f736f6369616c5f7265636f766572790000000000000000000000000000000000815250600681604051610fb291906142fe565b908152602001604051809103902060000160009054906101000a900460ff16611010576040517f08c379a000000000000000000000000000000000000000000000000000000000815260040161100790614361565b60405180910390fd5b600073ffffffffffffffffffffffffffffffffffffffff16600c60009054906101000a900473ffffffffffffffffffffffffffffffffffffffff1673ffffffffffffffffffffffffffffffffffffffff16036110a1576040517f08c379a00000000000000000000000000000000000000000000000000000000081526004016110989061454f565b60405180910390fd5b6202a300600b546110b2919061446f565b4210156110f4576040517f08c379a00000000000000000000000000000000000000000000000000000000081526004016110eb906145bb565b60405180910390fd5b600c60009054906101000a900473ffffffffffffffffffffffffffffffffffffffff16600160000160006101000a81548173ffffffffffffffffffffffffffffffffffffffff021916908373ffffffffffffffffffffffffffffffffffffffff1602179055506000600c60006101000a81548173ffffffffffffffffffffffffffffffffffffffff021916908373ffffffffffffffffffffffffffffffffffffffff1602179055506000600b8190555050565b60006060600160000160009054906101000a900473ffffffffffffffffffffffffffffffffffffffff1673ffffffffffffffffffffffffffffffffffffffff163373ffffffffffffffffffffffffffffffffffffffff161461123e576040517f08c379a000000000000000000000000000000000000000000000000000000000815260040161123590614065565b60405180910390fd5b611246612ae0565b600160020160149054906101000a900460ff16611298576040517f08c379a000000000000000000000000000000000000000000000000000000000815260040161128f906140d1565b60405180910390fd5b600160020160009054906101000a900473ffffffffffffffffffffffffffffffffffffffff1673ffffffffffffffffffffffffffffffffffffffff1662791751306040518263ffffffff1660e01b81526004016112f59190613f8f565b600060405180830381600087803b15801561130f57600080fd5b505af1158015611323573d6000803e3d6000fd5b505050508473ffffffffffffffffffffffffffffffffffffffff16848460405161134d91906143bd565b60006040518083038185875af1925050503d806000811461138a576040519150601f19603f3d011682016040523d82523d6000602084013e61138f565b606091505b50809250819350505060086040518060a001604052808773ffffffffffffffffffffffffffffffffffffffff168152602001868152602001858152602001428152602001841515815250908060018154018082558091505060019003906000526020600020906005020160009091909190915060008201518160000160006101000a81548173ffffffffffffffffffffffffffffffffffffffff021916908373ffffffffffffffffffffffffffffffffffffffff1602179055506020820151816001015560408201518160020190816114689190614787565b506060820151816003015560808201518160040160006101000a81548160ff02191690831515021790555050506114a185858585612bb2565b8473ffffffffffffffffffffffffffffffffffffffff167ff0ac34b0a7e049fef9c9fbfbb165ac9cfeca6938437ecea3c3556bd6bf8684c48585856040516114eb93929190614859565b60405180910390a26114fb612b26565b935093915050565b6006818051602081018201805184825260208301602085012081835280955050505050506000915090508060000160009054906101000a900460ff169080600101805461154f906144d2565b80601f016020809104026020016040519081016040528092919081815260200182805461157b906144d2565b80156115c85780601f1061159d576101008083540402835291602001916115c8565b820191906000526020600020905b8154815290600101906020018083116115ab57829003601f168201915b5050505050908060020154905083565b6040518060400160405280600f81526020017f736f6369616c5f7265636f76657279000000000000000000000000000000000081525060068160405161161e91906142fe565b908152602001604051809103902060000160009054906101000a900460ff1661167c576040517f08c379a000000000000000000000000000000000000000000000000000000000815260040161167390614361565b60405180910390fd5b600960003373ffffffffffffffffffffffffffffffffffffffff1673ffffffffffffffffffffffffffffffffffffffff16815260200190815260200160002060009054906101000a900460ff16611708576040517f08c379a00000000000000000000000000000000000000000000000000000000081526004016116ff906148e3565b60405180910390fd5b600073ffffffffffffffffffffffffffffffffffffffff168273ffffffffffffffffffffffffffffffffffffffff1603611777576040517f08c379a000000000000000000000000000000000000000000000000000000000815260040161176e9061494f565b60405180910390fd5b81600c60006101000a81548173ffffffffffffffffffffffffffffffffffffffff021916908373ffffffffffffffffffffffffffffffffffffffff16021790555042600b819055505050565b600160020160009054906101000a900473ffffffffffffffffffffffffffffffffffffffff1673ffffffffffffffffffffffffffffffffffffffff163373ffffffffffffffffffffffffffffffffffffffff1614611856576040517f08c379a000000000000000000000000000000000000000000000000000000000815260040161184d906149bb565b60405180910390fd5b60068260405161186691906142fe565b908152602001604051809103902060000160009054906101000a900460ff16611981576040518060600160405280600115158152602001828152602001428152506006836040516118b791906142fe565b908152602001604051809103902060008201518160000160006101000a81548160ff02191690831515021790555060208201518160010190816118fa9190614787565b506040820151816002015590505060078290806001815401808255809150506001900390600052602060002001600090919091909150908161193c9190614a36565b506119478282612cb2565b7f41fa48c3ebde140f0c53f4b96b9ac4cd526ee4c67600b22390741583099d9deb8282604051611978929190614b08565b60405180910390a15b5050565b600b5481565b60606007805480602002602001604051908101604052809291908181526020016000905b82821015611a5b5783829060005260206000200180546119ce906144d2565b80601f01602080910402602001604051908101604052809291908181526020018280546119fa906144d2565b8015611a475780601f10611a1c57610100808354040283529160200191611a47565b820191906000526020600020905b815481529060010190602001808311611a2a57829003601f168201915b5050505050815260200190600101906119af565b50505050905090565b6060600160000160009054906101000a900473ffffffffffffffffffffffffffffffffffffffff1673ffffffffffffffffffffffffffffffffffffffff163373ffffffffffffffffffffffffffffffffffffffff1614611af9576040517f08c379a0000000000000000000000000000000000000000000000000000000008152600401611af090614065565b60405180910390fd5b6040518060400160405280600a81526020017f61695f74726164696e6700000000000000000000000000000000000000000000815250600681604051611b3f91906142fe565b908152602001604051809103902060000160009054906101000a900460ff16611b9d576040517f08c379a0000000000000000000000000000000000000000000000000000000008152600401611b9490614361565b60405180910390fd5b6000600d85604051611baf91906142fe565b90815260200160405180910390208054611bc8906144d2565b80601f0160208091040260200160405190810160405280929190818152602001828054611bf4906144d2565b8015611c415780601f10611c1657610100808354040283529160200191611c41565b820191906000526020600020905b815481529060010190602001808311611c2457829003601f168201915b505050505090506000815111611c8c576040517f08c379a0000000000000000000000000000000000000000000000000000000008152600401611c8390614b8b565b60405180910390fd5b611c968185612d51565b92507f1d1317b83d123148e6e5a5585a04c203661b71f12fa13a7f7550c8700b8d28d38584604051611cc9929190614b08565b60405180910390a1505092915050565b600160000160009054906101000a900473ffffffffffffffffffffffffffffffffffffffff1673ffffffffffffffffffffffffffffffffffffffff163373ffffffffffffffffffffffffffffffffffffffff1614611d6c576040517f08c379a0000000000000000000000000000000000000000000000000000000008152600401611d6390614065565b60405180910390fd5b6040518060400160405280600f81526020017f736f6369616c5f7265636f766572790000000000000000000000000000000000815250600681604051611db291906142fe565b908152602001604051809103902060000160009054906101000a900460ff16611e10576040517f08c379a0000000000000000000000000000000000000000000000000000000008152600401611e0790614361565b60405180910390fd5b600082118015611e21575082518211155b611e60576040517f08c379a0000000000000000000000000000000000000000000000000000000008152600401611e5790614bf7565b60405180910390fd5b60005b8351811015611eeb57600060096000868481518110611e8557611e8461415d565b5b602002602001015173ffffffffffffffffffffffffffffffffffffffff1673ffffffffffffffffffffffffffffffffffffffff16815260200190815260200160002060006101000a81548160ff0219169083151502179055508080600101915050611e63565b5060005b8351811015611f7757600160096000868481518110611f1157611f1061415d565b5b602002602001015173ffffffffffffffffffffffffffffffffffffffff1673ffffffffffffffffffffffffffffffffffffffff16815260200190815260200160002060006101000a81548160ff0219169083151502179055508080600101915050611eef565b5081600a819055507f84b3e53c3fa8ee2bf473a2d04f2cb57a8985ffc37615e33f9b5ea0b868a72b118383604051611fb0929190614cc6565b60405180910390a1505050565b600f6020528060005260406000206000915090508054611fdc906144d2565b80601f0160208091040260200160405190810160405280929190818152602001828054612008906144d2565b80156120555780601f1061202a57610100808354040283529160200191612055565b820191906000526020600020905b81548152906001019060200180831161203857829003601f168201915b505050505081565b600160020160009054906101000a900473ffffffffffffffffffffffffffffffffffffffff1673ffffffffffffffffffffffffffffffffffffffff163373ffffffffffffffffffffffffffffffffffffffff16146120f0576040517f08c379a00000000000000000000000000000000000000000000000000000000081526004016120e7906149bb565b60405180910390fd5b8060016004016000828254612105919061446f565b9250508190555050565b60606008805480602002602001604051908101604052809291908181526020016000905b8282101561227c57838290600052602060002090600502016040518060a00160405290816000820160009054906101000a900473ffffffffffffffffffffffffffffffffffffffff1673ffffffffffffffffffffffffffffffffffffffff1673ffffffffffffffffffffffffffffffffffffffff168152602001600182015481526020016002820180546121c6906144d2565b80601f01602080910402602001604051908101604052809291908181526020018280546121f2906144d2565b801561223f5780601f106122145761010080835404028352916020019161223f565b820191906000526020600020905b81548152906001019060200180831161222257829003601f168201915b50505050508152602001600382015481526020016004820160009054906101000a900460ff16151515158152505081526020019060010190612133565b50505050905090565b600160020160149054906101000a900460ff16156122d8576040517f08c379a00000000000000000000000000000000000000000000000000000000081526004016122cf90614d42565b60405180910390fd5b82600160000160006101000a81548173ffffffffffffffffffffffffffffffffffffffff021916908373ffffffffffffffffffffffffffffffffffffffff16021790555081600180018190555080600160020160006101000a81548173ffffffffffffffffffffffffffffffffffffffff021916908373ffffffffffffffffffffffffffffffffffffffff16021790555060018060020160146101000a81548160ff02191690831515021790555060006001600301819055506000600160040181905550505050565b60008060008060006060600160000160009054906101000a900473ffffffffffffffffffffffffffffffffffffffff166001800154600160030154600160040154600880549050600780805480602002602001604051908101604052809291908181526020016000905b828210156124b757838290600052602060002001805461242a906144d2565b80601f0160208091040260200160405190810160405280929190818152602001828054612456906144d2565b80156124a35780601f10612478576101008083540402835291602001916124a3565b820191906000526020600020905b81548152906001019060200180831161248657829003601f168201915b50505050508152602001906001019061240b565b505050509050955095509550955095509550909192939495565b6060600160000160009054906101000a900473ffffffffffffffffffffffffffffffffffffffff1673ffffffffffffffffffffffffffffffffffffffff163373ffffffffffffffffffffffffffffffffffffffff1614612566576040517f08c379a000000000000000000000000000000000000000000000000000000000815260040161255d90614065565b60405180910390fd5b6040518060400160405280601181526020017f646566695f696e746567726174696f6e730000000000000000000000000000008152506006816040516125ac91906142fe565b908152602001604051809103902060000160009054906101000a900460ff1661260a576040517f08c379a000000000000000000000000000000000000000000000000000000000815260040161260190614361565b60405180910390fd5b6000808673ffffffffffffffffffffffffffffffffffffffff168560405161263291906143bd565b6000604051808303816000865af19150503d806000811461266f576040519150601f19603f3d011682016040523d82523d6000602084013e612674565b606091505b5091509150816126b9576040517f08c379a00000000000000000000000000000000000000000000000000000000081526004016126b090614dae565b60405180910390fd5b6000878787426040516020016126d29493929190614e37565b604051602081830303815290604052805190602001209050600160020160009054906101000a900473ffffffffffffffffffffffffffffffffffffffff1673ffffffffffffffffffffffffffffffffffffffff16630b43b3c1826002896040518463ffffffff1660e01b815260040161274d93929190614ed1565b600060405180830381600087803b15801561276757600080fd5b505af115801561277b573d6000803e3d6000fd5b50505050819450505050509392505050565b60096020528060005260406000206000915054906101000a900460ff1681565b600781815481106127bd57600080fd5b9060005260206000200160009150905080546127d8906144d2565b80601f0160208091040260200160405190810160405280929190818152602001828054612804906144d2565b80156128515780601f1061282657610100808354040283529160200191612851565b820191906000526020600020905b81548152906001019060200180831161283457829003601f168201915b505050505081565b600c60009054906101000a900473ffffffffffffffffffffffffffffffffffffffff1681565b600160000160009054906101000a900473ffffffffffffffffffffffffffffffffffffffff1673ffffffffffffffffffffffffffffffffffffffff163373ffffffffffffffffffffffffffffffffffffffff1614612912576040517f08c379a000000000000000000000000000000000000000000000000000000000815260040161290990614065565b60405180910390fd5b6040518060400160405280601281526020017f63726f73735f636861696e5f627269646765000000000000000000000000000081525060068160405161295891906142fe565b908152602001604051809103902060000160009054906101000a900460ff166129b6576040517f08c379a00000000000000000000000000000000000000000000000000000000081526004016129ad90614361565b60405180910390fd5b6000848484426040516020016129cf9493929190614f0f565b60405160208183030381529060405280519060200120905082600f60008360001c81526020019081526020016000209081612a0a9190614787565b50600160020160009054906101000a900473ffffffffffffffffffffffffffffffffffffffff1673ffffffffffffffffffffffffffffffffffffffff16630b43b3c1826003866040518463ffffffff1660e01b8152600401612a6e93929190614f94565b600060405180830381600087803b158015612a8857600080fd5b505af1158015612a9c573d6000803e3d6000fd5b505050507fa58c107d507012c8ee850e7820c1a38f498e78c1a136d296cd77328698c5f87a8584604051612ad1929190614fd2565b60405180910390a15050505050565b600260005403612b1c576040517f3ee5aeb500000000000000000000000000000000000000000000000000000000815260040160405180910390fd5b6002600081905550565b6001600081905550565b612bac848573ffffffffffffffffffffffffffffffffffffffff166323b872dd868686604051602401612b6593929190615002565b604051602081830303815290604052915060e01b6020820180517bffffffffffffffffffffffffffffffffffffffffffffffffffffffff8381831617835250505050612d7b565b50505050565b600084848484426001800154604051602001612bd396959493929190615081565b604051602081830303815290604052805190602001209050600085858442604051602001612c0494939291906150ed565b6040516020818303038152906040529050600160020160009054906101000a900473ffffffffffffffffffffffffffffffffffffffff1673ffffffffffffffffffffffffffffffffffffffff16630b43b3c1836001846040518463ffffffff1660e01b8152600401612c789392919061516d565b600060405180830381600087803b158015612c9257600080fd5b505af1158015612ca6573d6000803e3d6000fd5b50505050505050505050565b600082604051602001612cc591906142fe565b604051602081830303815290604052805190602001209050604051602001612cec906151f7565b604051602081830303815290604052805190602001208103612d1657612d1182612e1d565b612d4c565b604051602001612d2590615258565b604051602081830303815290604052805190602001208103612d4b57612d4a82612eb7565b5b5b505050565b606081604051602001612d6491906152df565b604051602081830303815290604052905092915050565b600080602060008451602086016000885af180612d9e576040513d6000823e3d81fd5b3d925060005191505060008214612db9576001811415612dd5565b60008473ffffffffffffffffffffffffffffffffffffffff163b145b15612e1757836040517f5274afe7000000000000000000000000000000000000000000000000000000008152600401612e0e9190613f8f565b60405180910390fd5b50505050565b60008082806020019051810190612e349190615507565b9150915060005b8251811015612eb157818181518110612e5757612e5661415d565b5b6020026020010151600d848381518110612e7457612e7361415d565b5b6020026020010151604051612e8991906142fe565b90815260200160405180910390209081612ea39190614787565b508080600101915050612e3b565b50505050565b60008082806020019051810190612ece9190615640565b9150915060005b8251811015612f5d57600160096000858481518110612ef757612ef661415d565b5b602002602001015173ffffffffffffffffffffffffffffffffffffffff1673ffffffffffffffffffffffffffffffffffffffff16815260200190815260200160002060006101000a81548160ff0219169083151502179055508080600101915050612ed5565b5080600a81905550505050565b6000604051905090565b600080fd5b600080fd5b600080fd5b6000601f19601f8301169050919050565b7f4e487b7100000000000000000000000000000000000000000000000000000000600052604160045260246000fd5b612fcc82612f83565b810181811067ffffffffffffffff82111715612feb57612fea612f94565b5b80604052505050565b6000612ffe612f6a565b905061300a8282612fc3565b919050565b600067ffffffffffffffff82111561302a57613029612f94565b5b602082029050602081019050919050565b600080fd5b600073ffffffffffffffffffffffffffffffffffffffff82169050919050565b600061306b82613040565b9050919050565b61307b81613060565b811461308657600080fd5b50565b60008135905061309881613072565b92915050565b60006130b16130ac8461300f565b612ff4565b905080838252602082019050602084028301858111156130d4576130d361303b565b5b835b818110156130fd57806130e98882613089565b8452602084019350506020810190506130d6565b5050509392505050565b600082601f83011261311c5761311b612f7e565b5b813561312c84826020860161309e565b91505092915050565b600067ffffffffffffffff8211156131505761314f612f94565b5b602082029050602081019050919050565b6000819050919050565b61317481613161565b811461317f57600080fd5b50565b6000813590506131918161316b565b92915050565b60006131aa6131a584613135565b612ff4565b905080838252602082019050602084028301858111156131cd576131cc61303b565b5b835b818110156131f657806131e28882613182565b8452602084019350506020810190506131cf565b5050509392505050565b600082601f83011261321557613214612f7e565b5b8135613225848260208601613197565b91505092915050565b600067ffffffffffffffff82111561324957613248612f94565b5b602082029050602081019050919050565b600080fd5b600067ffffffffffffffff82111561327a57613279612f94565b5b61328382612f83565b9050602081019050919050565b82818337600083830152505050565b60006132b26132ad8461325f565b612ff4565b9050828152602081018484840111156132ce576132cd61325a565b5b6132d9848285613290565b509392505050565b600082601f8301126132f6576132f5612f7e565b5b813561330684826020860161329f565b91505092915050565b600061332261331d8461322e565b612ff4565b905080838252602082019050602084028301858111156133455761334461303b565b5b835b8181101561338c57803567ffffffffffffffff81111561336a57613369612f7e565b5b80860161337789826132e1565b85526020850194505050602081019050613347565b5050509392505050565b600082601f8301126133ab576133aa612f7e565b5b81356133bb84826020860161330f565b91505092915050565b6000806000606084860312156133dd576133dc612f74565b5b600084013567ffffffffffffffff8111156133fb576133fa612f79565b5b61340786828701613107565b935050602084013567ffffffffffffffff81111561342857613427612f79565b5b61343486828701613200565b925050604084013567ffffffffffffffff81111561345557613454612f79565b5b61346186828701613396565b9150509250925092565b600081519050919050565b600082825260208201905092915050565b6000819050602082019050919050565b60008115159050919050565b6134ac81613497565b82525050565b60006134be83836134a3565b60208301905092915050565b6000602082019050919050565b60006134e28261346b565b6134ec8185613476565b93506134f783613487565b8060005b8381101561352857815161350f88826134b2565b975061351a836134ca565b9250506001810190506134fb565b5085935050505092915050565b600081519050919050565b600082825260208201905092915050565b6000819050602082019050919050565b600081519050919050565b600082825260208201905092915050565b60005b8381101561359b578082015181840152602081019050613580565b60008484015250505050565b60006135b282613561565b6135bc818561356c565b93506135cc81856020860161357d565b6135d581612f83565b840191505092915050565b60006135ec83836135a7565b905092915050565b6000602082019050919050565b600061360c82613535565b6136168185613540565b93508360208202850161362885613551565b8060005b85811015613664578484038952815161364585826135e0565b9450613650836135f4565b925060208a0199505060018101905061362c565b50829750879550505050505092915050565b6000604082019050818103600083015261369081856134d7565b905081810360208301526136a48184613601565b90509392505050565b6136b681613060565b82525050565b6136c581613161565b82525050565b6136d481613497565b82525050565b600060c0820190506136ef60008301896136ad565b6136fc60208301886136bc565b61370960408301876136ad565b61371660608301866136cb565b61372360808301856136bc565b61373060a08301846136bc565b979650505050505050565b600060208201905061375060008301846136bc565b92915050565b60006020828403121561376c5761376b612f74565b5b600061377a84828501613089565b91505092915050565b60008060006060848603121561379c5761379b612f74565b5b60006137aa86828701613089565b93505060206137bb86828701613182565b92505060406137cc86828701613089565b9150509250925092565b600067ffffffffffffffff8211156137f1576137f0612f94565b5b6137fa82612f83565b9050602081019050919050565b600061381a613815846137d6565b612ff4565b9050828152602081018484840111156138365761383561325a565b5b613841848285613290565b509392505050565b600082601f83011261385e5761385d612f7e565b5b813561386e848260208601613807565b91505092915050565b60006020828403121561388d5761388c612f74565b5b600082013567ffffffffffffffff8111156138ab576138aa612f79565b5b6138b784828501613849565b91505092915050565b600082825260208201905092915050565b60006138dc82613561565b6138e681856138c0565b93506138f681856020860161357d565b6138ff81612f83565b840191505092915050565b6000602082019050818103600083015261392481846138d1565b905092915050565b60006020828403121561394257613941612f74565b5b600061395084828501613182565b91505092915050565b600060a08201905061396e60008301886136ad565b61397b60208301876136bc565b818103604083015261398d81866138d1565b905061399c60608301856136bc565b6139a960808301846136cb565b9695505050505050565b6000806000606084860312156139cc576139cb612f74565b5b60006139da86828701613089565b93505060206139eb86828701613182565b925050604084013567ffffffffffffffff811115613a0c57613a0b612f79565b5b613a18868287016132e1565b9150509250925092565b6000604082019050613a3760008301856136cb565b8181036020830152613a4981846138d1565b90509392505050565b6000606082019050613a6760008301866136cb565b8181036020830152613a7981856138d1565b9050613a8860408301846136bc565b949350505050565b60008060408385031215613aa757613aa6612f74565b5b600083013567ffffffffffffffff811115613ac557613ac4612f79565b5b613ad185828601613849565b925050602083013567ffffffffffffffff811115613af257613af1612f79565b5b613afe858286016132e1565b9150509250929050565b600081519050919050565b600082825260208201905092915050565b6000819050602082019050919050565b600081519050919050565b600082825260208201905092915050565b6000613b5b82613b34565b613b658185613b3f565b9350613b7581856020860161357d565b613b7e81612f83565b840191505092915050565b6000613b958383613b50565b905092915050565b6000602082019050919050565b6000613bb582613b08565b613bbf8185613b13565b935083602082028501613bd185613b24565b8060005b85811015613c0d5784840389528151613bee8582613b89565b9450613bf983613b9d565b925060208a01995050600181019050613bd5565b50829750879550505050505092915050565b60006020820190508181036000830152613c398184613baa565b905092915050565b60008060408385031215613c5857613c57612f74565b5b600083013567ffffffffffffffff811115613c7657613c75612f79565b5b613c8285828601613107565b9250506020613c9385828601613182565b9150509250929050565b600081519050919050565b600082825260208201905092915050565b6000819050602082019050919050565b613cd281613060565b82525050565b613ce181613161565b82525050565b600060a083016000830151613cff6000860182613cc9565b506020830151613d126020860182613cd8565b5060408301518482036040860152613d2a82826135a7565b9150506060830151613d3f6060860182613cd8565b506080830151613d5260808601826134a3565b508091505092915050565b6000613d698383613ce7565b905092915050565b6000602082019050919050565b6000613d8982613c9d565b613d938185613ca8565b935083602082028501613da585613cb9565b8060005b85811015613de15784840389528151613dc28582613d5d565b9450613dcd83613d71565b925060208a01995050600181019050613da9565b50829750879550505050505092915050565b60006020820190508181036000830152613e0d8184613d7e565b905092915050565b600060c082019050613e2a60008301896136ad565b613e3760208301886136bc565b613e4460408301876136bc565b613e5160608301866136bc565b613e5e60808301856136bc565b81810360a0830152613e708184613baa565b9050979650505050505050565b600080600060608486031215613e9657613e95612f74565b5b6000613ea486828701613089565b935050602084013567ffffffffffffffff811115613ec557613ec4612f79565b5b613ed186828701613849565b925050604084013567ffffffffffffffff811115613ef257613ef1612f79565b5b613efe868287016132e1565b9150509250925092565b6000602082019050613f1d60008301846136cb565b92915050565b600082825260208201905092915050565b6000613f3f82613b34565b613f498185613f23565b9350613f5981856020860161357d565b613f6281612f83565b840191505092915050565b60006020820190508181036000830152613f878184613f34565b905092915050565b6000602082019050613fa460008301846136ad565b92915050565b600080600060608486031215613fc357613fc2612f74565b5b6000613fd186828701613182565b9350506020613fe286828701613089565b925050604084013567ffffffffffffffff81111561400357614002612f79565b5b61400f868287016132e1565b9150509250925092565b7f4e6f742077616c6c6574206f776e657200000000000000000000000000000000600082015250565b600061404f601083613f23565b915061405a82614019565b602082019050919050565b6000602082019050818103600083015261407e81614042565b9050919050565b7f4e6f7420696e697469616c697a65640000000000000000000000000000000000600082015250565b60006140bb600f83613f23565b91506140c682614085565b602082019050919050565b600060208201905081810360008301526140ea816140ae565b9050919050565b7f4172726179206c656e677468206d69736d617463680000000000000000000000600082015250565b6000614127601583613f23565b9150614132826140f1565b602082019050919050565b600060208201905081810360008301526141568161411a565b9050919050565b7f4e487b7100000000000000000000000000000000000000000000000000000000600052603260045260246000fd5b60006060820190506141a160008301866136ad565b6141ae60208301856136bc565b81810360408301526141c081846138d1565b9050949350505050565b6141d381613497565b81146141de57600080fd5b50565b6000815190506141f0816141ca565b92915050565b60006142096142048461325f565b612ff4565b9050828152602081018484840111156142255761422461325a565b5b61423084828561357d565b509392505050565b600082601f83011261424d5761424c612f7e565b5b815161425d8482602086016141f6565b91505092915050565b6000806040838503121561427d5761427c612f74565b5b600061428b858286016141e1565b925050602083015167ffffffffffffffff8111156142ac576142ab612f79565b5b6142b885828601614238565b9150509250929050565b600081905092915050565b60006142d882613b34565b6142e281856142c2565b93506142f281856020860161357d565b80840191505092915050565b600061430a82846142cd565b915081905092915050565b7f46656174757265206e6f74206163746976650000000000000000000000000000600082015250565b600061434b601283613f23565b915061435682614315565b602082019050919050565b6000602082019050818103600083015261437a8161433e565b9050919050565b600081905092915050565b600061439782613561565b6143a18185614381565b93506143b181856020860161357d565b80840191505092915050565b60006143c9828461438c565b915081905092915050565b7f5374616b696e67206661696c6564000000000000000000000000000000000000600082015250565b600061440a600e83613f23565b9150614415826143d4565b602082019050919050565b60006020820190508181036000830152614439816143fd565b9050919050565b7f4e487b7100000000000000000000000000000000000000000000000000000000600052601160045260246000fd5b600061447a82613161565b915061448583613161565b925082820190508082111561449d5761449c614440565b5b92915050565b7f4e487b7100000000000000000000000000000000000000000000000000000000600052602260045260246000fd5b600060028204905060018216806144ea57607f821691505b6020821081036144fd576144fc6144a3565b5b50919050565b7f4e6f2070656e64696e67207265636f7665727900000000000000000000000000600082015250565b6000614539601383613f23565b915061454482614503565b602082019050919050565b600060208201905081810360008301526145688161452c565b9050919050565b7f5265636f766572792074696d656c6f636b206e6f74206d657400000000000000600082015250565b60006145a5601983613f23565b91506145b08261456f565b602082019050919050565b600060208201905081810360008301526145d481614598565b9050919050565b60008190508160005260206000209050919050565b60006020601f8301049050919050565b600082821b905092915050565b60006008830261463d7fffffffffffffffffffffffffffffffffffffffffffffffffffffffffffffffff82614600565b6146478683614600565b95508019841693508086168417925050509392505050565b6000819050919050565b600061468461467f61467a84613161565b61465f565b613161565b9050919050565b6000819050919050565b61469e83614669565b6146b26146aa8261468b565b84845461460d565b825550505050565b600090565b6146c76146ba565b6146d2818484614695565b505050565b5b818110156146f6576146eb6000826146bf565b6001810190506146d8565b5050565b601f82111561473b5761470c816145db565b614715846145f0565b81016020851015614724578190505b614738614730856145f0565b8301826146d7565b50505b505050565b600082821c905092915050565b600061475e60001984600802614740565b1980831691505092915050565b6000614777838361474d565b9150826002028217905092915050565b61479082613561565b67ffffffffffffffff8111156147a9576147a8612f94565b5b6147b382546144d2565b6147be8282856146fa565b600060209050601f8311600181146147f157600084156147df578287015190505b6147e9858261476b565b865550614851565b601f1984166147ff866145db565b60005b8281101561482757848901518255600182019150602085019450602081019050614802565b868310156148445784890151614840601f89168261474d565b8355505b6001600288020188555050505b505050505050565b600060608201905061486e60008301866136bc565b818103602083015261488081856138d1565b905061488f60408301846136cb565b949350505050565b7f4e6f74206120677561726469616e000000000000000000000000000000000000600082015250565b60006148cd600e83613f23565b91506148d882614897565b602082019050919050565b600060208201905081810360008301526148fc816148c0565b9050919050565b7f496e76616c6964206e6577206f776e6572000000000000000000000000000000600082015250565b6000614939601183613f23565b915061494482614903565b602082019050919050565b600060208201905081810360008301526149688161492c565b9050919050565b7f4e6f7420666163746f7279000000000000000000000000000000000000000000600082015250565b60006149a5600b83613f23565b91506149b08261496f565b602082019050919050565b600060208201905081810360008301526149d481614998565b9050919050565b60008190508160005260206000209050919050565b601f821115614a3157614a02816149db565b614a0b846145f0565b81016020851015614a1a578190505b614a2e614a26856145f0565b8301826146d7565b50505b505050565b614a3f82613b34565b67ffffffffffffffff811115614a5857614a57612f94565b5b614a6282546144d2565b614a6d8282856149f0565b600060209050601f831160018114614aa05760008415614a8e578287015190505b614a98858261476b565b865550614b00565b601f198416614aae866149db565b60005b82811015614ad657848901518255600182019150602085019450602081019050614ab1565b86831015614af35784890151614aef601f89168261474d565b8355505b6001600288020188555050505b505050505050565b60006040820190508181036000830152614b228185613f34565b90508181036020830152614b3681846138d1565b90509392505050565b7f5374726174656779206e6f7420666f756e640000000000000000000000000000600082015250565b6000614b75601283613f23565b9150614b8082614b3f565b602082019050919050565b60006020820190508181036000830152614ba481614b68565b9050919050565b7f496e76616c6964207468726573686f6c64000000000000000000000000000000600082015250565b6000614be1601183613f23565b9150614bec82614bab565b602082019050919050565b60006020820190508181036000830152614c1081614bd4565b9050919050565b600081519050919050565b600082825260208201905092915050565b6000819050602082019050919050565b6000614c4f8383613cc9565b60208301905092915050565b6000602082019050919050565b6000614c7382614c17565b614c7d8185614c22565b9350614c8883614c33565b8060005b83811015614cb9578151614ca08882614c43565b9750614cab83614c5b565b925050600181019050614c8c565b5085935050505092915050565b60006040820190508181036000830152614ce08185614c68565b9050614cef60208301846136bc565b9392505050565b7f416c726561647920696e697469616c697a656400000000000000000000000000600082015250565b6000614d2c601383613f23565b9150614d3782614cf6565b602082019050919050565b60006020820190508181036000830152614d5b81614d1f565b9050919050565b7f4465466920696e746572616374696f6e206661696c6564000000000000000000600082015250565b6000614d98601783613f23565b9150614da382614d62565b602082019050919050565b60006020820190508181036000830152614dc781614d8b565b9050919050565b60008160601b9050919050565b6000614de682614dce565b9050919050565b6000614df882614ddb565b9050919050565b614e10614e0b82613060565b614ded565b82525050565b6000819050919050565b614e31614e2c82613161565b614e16565b82525050565b6000614e438287614dff565b601482019150614e5382866142cd565b9150614e5f828561438c565b9150614e6b8284614e20565b60208201915081905095945050505050565b6000819050919050565b614e9081614e7d565b82525050565b6000819050919050565b6000614ebb614eb6614eb184614e96565b61465f565b613161565b9050919050565b614ecb81614ea0565b82525050565b6000606082019050614ee66000830186614e87565b614ef36020830185614ec2565b8181036040830152614f0581846138d1565b9050949350505050565b6000614f1b8287614e20565b602082019150614f2b8286614dff565b601482019150614f3b828561438c565b9150614f478284614e20565b60208201915081905095945050505050565b6000819050919050565b6000614f7e614f79614f7484614f59565b61465f565b613161565b9050919050565b614f8e81614f63565b82525050565b6000606082019050614fa96000830186614e87565b614fb66020830185614f85565b8181036040830152614fc881846138d1565b9050949350505050565b6000604082019050614fe760008301856136bc565b8181036020830152614ff981846138d1565b90509392505050565b600060608201905061501760008301866136ad565b61502460208301856136ad565b61503160408301846136bc565b949350505050565b60008160f81b9050919050565b600061505182615039565b9050919050565b600061506382615046565b9050919050565b61507b61507682613497565b615058565b82525050565b600061508d8289614dff565b60148201915061509d8288614e20565b6020820191506150ad828761438c565b91506150b9828661506a565b6001820191506150c98285614e20565b6020820191506150d98284614e20565b602082019150819050979650505050505050565b600060808201905061510260008301876136ad565b61510f60208301866136bc565b61511c60408301856136cb565b61512960608301846136bc565b95945050505050565b6000819050919050565b600061515761515261514d84615132565b61465f565b613161565b9050919050565b6151678161513c565b82525050565b60006060820190506151826000830186614e87565b61518f602083018561515e565b81810360408301526151a181846138d1565b9050949350505050565b7f61695f74726164696e6700000000000000000000000000000000000000000000600082015250565b60006151e1600a836142c2565b91506151ec826151ab565b600a82019050919050565b6000615202826151d4565b9150819050919050565b7f736f6369616c5f7265636f766572790000000000000000000000000000000000600082015250565b6000615242600f836142c2565b915061524d8261520c565b600f82019050919050565b600061526382615235565b9150819050919050565b7f5374726174656779206578656375746564207769746820706172616d6574657260008201527f733a200000000000000000000000000000000000000000000000000000000000602082015250565b60006152c96023836142c2565b91506152d48261526d565b602382019050919050565b60006152ea826152bc565b91506152f6828461438c565b915081905092915050565b600067ffffffffffffffff82111561531c5761531b612f94565b5b602082029050602081019050919050565b600061534061533b846137d6565b612ff4565b90508281526020810184848401111561535c5761535b61325a565b5b61536784828561357d565b509392505050565b600082601f83011261538457615383612f7e565b5b815161539484826020860161532d565b91505092915050565b60006153b06153ab84615301565b612ff4565b905080838252602082019050602084028301858111156153d3576153d261303b565b5b835b8181101561541a57805167ffffffffffffffff8111156153f8576153f7612f7e565b5b808601615405898261536f565b855260208501945050506020810190506153d5565b5050509392505050565b600082601f83011261543957615438612f7e565b5b815161544984826020860161539d565b91505092915050565b60006154656154608461322e565b612ff4565b905080838252602082019050602084028301858111156154885761548761303b565b5b835b818110156154cf57805167ffffffffffffffff8111156154ad576154ac612f7e565b5b8086016154ba8982614238565b8552602085019450505060208101905061548a565b5050509392505050565b600082601f8301126154ee576154ed612f7e565b5b81516154fe848260208601615452565b91505092915050565b6000806040838503121561551e5761551d612f74565b5b600083015167ffffffffffffffff81111561553c5761553b612f79565b5b61554885828601615424565b925050602083015167ffffffffffffffff81111561556957615568612f79565b5b615575858286016154d9565b9150509250929050565b60008151905061558e81613072565b92915050565b60006155a76155a28461300f565b612ff4565b905080838252602082019050602084028301858111156155ca576155c961303b565b5b835b818110156155f357806155df888261557f565b8452602084019350506020810190506155cc565b5050509392505050565b600082601f83011261561257615611612f7e565b5b8151615622848260208601615594565b91505092915050565b60008151905061563a8161316b565b92915050565b6000806040838503121561565757615656612f74565b5b600083015167ffffffffffffffff81111561567557615674612f79565b5b615681858286016155fd565b92505060206156928582860161562b565b915050925092905056fea26469706673582212201a291e7d2bbb6593d4294d9f665f56b62e33dbf9c89834d4f87c99787648def164736f6c634300081c0033",
  "linkReferences": {},
  "deployedLinkReferences": {}
}