{
  "_format": "hh-sol-artifact-1",
  "contractName": "PaxeerWalletVMFactory",
  "sourceName": "contracts/PaxeerWalletVMFactory.sol",
  "abi": [
    {
      "inputs": [
        {
          "internalType": "address",
          "name": "_walletVMImplementation",
          "type": "address"
        }
      ],
      "stateMutability": "nonpayable",
      "type": "constructor"
    },
    {
      "inputs": [],
      "name": "FailedDeployment",
      "type": "error"
    },
    {
      "inputs": [
        {
          "internalType": "uint256",
          "name": "balance",
          "type": "uint256"
        },
        {
          "internalType": "uint256",
          "name": "needed",
          "type": "uint256"
        }
      ],
      "name": "InsufficientBalance",
      "type": "error"
    },
    {
      "inputs": [
        {
          "internalType": "address",
          "name": "owner",
          "type": "address"
        }
      ],
      "name": "OwnableInvalidOwner",
      "type": "error"
    },
    {
      "inputs": [
        {
          "internalType": "address",
          "name": "account",
          "type": "address"
        }
      ],
      "name": "OwnableUnauthorizedAccount",
      "type": "error"
    },
    {
      "inputs": [],
      "name": "ReentrancyGuardReentrantCall",
      "type": "error"
    },
    {
      "anonymous": false,
      "inputs": [
        {
          "indexed": true,
          "internalType": "address",
          "name": "walletVM",
          "type": "address"
        },
        {
          "indexed": false,
          "internalType": "string",
          "name": "featureName",
          "type": "string"
        },
        {
          "indexed": false,
          "internalType": "bytes",
          "name": "config",
          "type": "bytes"
        }
      ],
      "name": "FeatureActivated",
      "type": "event"
    },
    {
      "anonymous": false,
      "inputs": [
        {
          "indexed": true,
          "internalType": "address",
          "name": "walletVM",
          "type": "address"
        },
        {
          "indexed": false,
          "internalType": "bytes32",
          "name": "dataHash",
          "type": "bytes32"
        },
        {
          "indexed": false,
          "internalType": "uint256",
          "name": "reward",
          "type": "uint256"
        }
      ],
      "name": "NetworkDataContributed",
      "type": "event"
    },
    {
      "anonymous": false,
      "inputs": [
        {
          "indexed": true,
          "internalType": "address",
          "name": "previousOwner",
          "type": "address"
        },
        {
          "indexed": true,
          "internalType": "address",
          "name": "newOwner",
          "type": "address"
        }
      ],
      "name": "OwnershipTransferred",
      "type": "event"
    },
    {
      "anonymous": false,
      "inputs": [
        {
          "indexed": true,
          "internalType": "address",
          "name": "user",
          "type": "address"
        },
        {
          "indexed": true,
          "internalType": "address",
          "name": "walletVM",
          "type": "address"
        },
        {
          "indexed": false,
          "internalType": "uint256",
          "name": "walletId",
          "type": "uint256"
        }
      ],
      "name": "WalletVMCreated",
      "type": "event"
    },
    {
      "anonymous": false,
      "inputs": [
        {
          "indexed": true,
          "internalType": "address",
          "name": "walletVM",
          "type": "address"
        },
        {
          "indexed": false,
          "internalType": "uint256",
          "name": "newVersion",
          "type": "uint256"
        }
      ],
      "name": "WalletVMUpgraded",
      "type": "event"
    },
    {
      "inputs": [
        {
          "internalType": "string",
          "name": "featureName",
          "type": "string"
        },
        {
          "internalType": "bytes",
          "name": "config",
          "type": "bytes"
        }
      ],
      "name": "activateFeature",
      "outputs": [],
      "stateMutability": "nonpayable",
      "type": "function"
    },
    {
      "inputs": [
        {
          "internalType": "string",
          "name": "featureName",
          "type": "string"
        }
      ],
      "name": "addFeature",
      "outputs": [],
      "stateMutability": "nonpayable",
      "type": "function"
    },
    {
      "inputs": [
        {
          "internalType": "uint256",
          "name": "",
          "type": "uint256"
        }
      ],
      "name": "availableFeatures",
      "outputs": [
        {
          "internalType": "string",
          "name": "",
          "type": "string"
        }
      ],
      "stateMutability": "view",
      "type": "function"
    },
    {
      "inputs": [
        {
          "internalType": "bytes32",
          "name": "dataHash",
          "type": "bytes32"
        },
        {
          "internalType": "uint256",
          "name": "dataType",
          "type": "uint256"
        },
        {
          "internalType": "bytes",
          "name": "metadata",
          "type": "bytes"
        }
      ],
      "name": "contributeNetworkData",
      "outputs": [],
      "stateMutability": "nonpayable",
      "type": "function"
    },
    {
      "inputs": [],
      "name": "contributionRewardPool",
      "outputs": [
        {
          "internalType": "uint256",
          "name": "",
          "type": "uint256"
        }
      ],
      "stateMutability": "view",
      "type": "function"
    },
    {
      "inputs": [
        {
          "internalType": "string[]",
          "name": "initialFeatures",
          "type": "string[]"
        },
        {
          "internalType": "bytes[]",
          "name": "featureConfigs",
          "type": "bytes[]"
        }
      ],
      "name": "createWalletVM",
      "outputs": [
        {
          "internalType": "address",
          "name": "walletVM",
          "type": "address"
        }
      ],
      "stateMutability": "nonpayable",
      "type": "function"
    },
    {
      "inputs": [],
      "name": "currentVersion",
      "outputs": [
        {
          "internalType": "uint256",
          "name": "",
          "type": "uint256"
        }
      ],
      "stateMutability": "view",
      "type": "function"
    },
    {
      "inputs": [
        {
          "internalType": "address",
          "name": "walletVM",
          "type": "address"
        }
      ],
      "name": "deactivateWallet",
      "outputs": [],
      "stateMutability": "nonpayable",
      "type": "function"
    },
    {
      "inputs": [],
      "name": "fundContributionRewards",
      "outputs": [],
      "stateMutability": "payable",
      "type": "function"
    },
    {
      "inputs": [],
      "name": "getAvailableFeatures",
      "outputs": [
        {
          "internalType": "string[]",
          "name": "",
          "type": "string[]"
        }
      ],
      "stateMutability": "view",
      "type": "function"
    },
    {
      "inputs": [],
      "name": "getNetworkStats",
      "outputs": [
        {
          "components": [
            {
              "internalType": "uint256",
              "name": "totalWallets",
              "type": "uint256"
            },
            {
              "internalType": "uint256",
              "name": "activeWallets",
              "type": "uint256"
            },
            {
              "internalType": "uint256",
              "name": "totalContributions",
              "type": "uint256"
            },
            {
              "internalType": "uint256",
              "name": "totalRewardsDistributed",
              "type": "uint256"
            }
          ],
          "internalType": "struct PaxeerWalletVMFactory.NetworkStats",
          "name": "",
          "type": "tuple"
        }
      ],
      "stateMutability": "view",
      "type": "function"
    },
    {
      "inputs": [
        {
          "internalType": "address",
          "name": "user",
          "type": "address"
        }
      ],
      "name": "getUserWallet",
      "outputs": [
        {
          "internalType": "address",
          "name": "",
          "type": "address"
        }
      ],
      "stateMutability": "view",
      "type": "function"
    },
    {
      "inputs": [
        {
          "internalType": "address",
          "name": "user",
          "type": "address"
        }
      ],
      "name": "getWalletVMInfo",
      "outputs": [
        {
          "internalType": "address",
          "name": "walletVM",
          "type": "address"
        },
        {
          "internalType": "uint256",
          "name": "walletId",
          "type": "uint256"
        },
        {
          "internalType": "uint256",
          "name": "version",
          "type": "uint256"
        },
        {
          "internalType": "uint256",
          "name": "createdAt",
          "type": "uint256"
        },
        {
          "internalType": "uint256",
          "name": "lastActivity",
          "type": "uint256"
        },
        {
          "internalType": "uint256",
          "name": "contributionScore",
          "type": "uint256"
        },
        {
          "internalType": "bool",
          "name": "isActive",
          "type": "bool"
        },
        {
          "internalType": "string[]",
          "name": "activeFeatures",
          "type": "string[]"
        }
      ],
      "stateMutability": "view",
      "type": "function"
    },
    {
      "inputs": [
        {
          "internalType": "address",
          "name": "user",
          "type": "address"
        }
      ],
      "name": "hasWallet",
      "outputs": [
        {
          "internalType": "bool",
          "name": "",
          "type": "bool"
        }
      ],
      "stateMutability": "view",
      "type": "function"
    },
    {
      "inputs": [
        {
          "internalType": "string",
          "name": "",
          "type": "string"
        }
      ],
      "name": "isFeatureAvailable",
      "outputs": [
        {
          "internalType": "bool",
          "name": "",
          "type": "bool"
        }
      ],
      "stateMutability": "view",
      "type": "function"
    },
    {
      "inputs": [],
      "name": "networkStats",
      "outputs": [
        {
          "internalType": "uint256",
          "name": "totalWallets",
          "type": "uint256"
        },
        {
          "internalType": "uint256",
          "name": "activeWallets",
          "type": "uint256"
        },
        {
          "internalType": "uint256",
          "name": "totalContributions",
          "type": "uint256"
        },
        {
          "internalType": "uint256",
          "name": "totalRewardsDistributed",
          "type": "uint256"
        }
      ],
      "stateMutability": "view",
      "type": "function"
    },
    {
      "inputs": [],
      "name": "nextWalletId",
      "outputs": [
        {
          "internalType": "uint256",
          "name": "",
          "type": "uint256"
        }
      ],
      "stateMutability": "view",
      "type": "function"
    },
    {
      "inputs": [],
      "name": "owner",
      "outputs": [
        {
          "internalType": "address",
          "name": "",
          "type": "address"
        }
      ],
      "stateMutability": "view",
      "type": "function"
    },
    {
      "inputs": [],
      "name": "renounceOwnership",
      "outputs": [],
      "stateMutability": "nonpayable",
      "type": "function"
    },
    {
      "inputs": [
        {
          "internalType": "address",
          "name": "newOwner",
          "type": "address"
        }
      ],
      "name": "transferOwnership",
      "outputs": [],
      "stateMutability": "nonpayable",
      "type": "function"
    },
    {
      "inputs": [
        {
          "internalType": "address",
          "name": "walletVM",
          "type": "address"
        }
      ],
      "name": "updateActivity",
      "outputs": [],
      "stateMutability": "nonpayable",
      "type": "function"
    },
    {
      "inputs": [
        {
          "internalType": "address",
          "name": "newImplementation",
          "type": "address"
        }
      ],
      "name": "updateWalletVMImplementation",
      "outputs": [],
      "stateMutability": "nonpayable",
      "type": "function"
    },
    {
      "inputs": [
        {
          "internalType": "address",
          "name": "",
          "type": "address"
        }
      ],
      "name": "userToWallet",
      "outputs": [
        {
          "internalType": "address",
          "name": "",
          "type": "address"
        }
      ],
      "stateMutability": "view",
      "type": "function"
    },
    {
      "inputs": [
        {
          "internalType": "uint256",
          "name": "",
          "type": "uint256"
        }
      ],
      "name": "walletIdToAddress",
      "outputs": [
        {
          "internalType": "address",
          "name": "",
          "type": "address"
        }
      ],
      "stateMutability": "view",
      "type": "function"
    },
    {
      "inputs": [],
      "name": "walletVMImplementation",
      "outputs": [
        {
          "internalType": "address",
          "name": "",
          "type": "address"
        }
      ],
      "stateMutability": "view",
      "type": "function"
    },
    {
      "inputs": [
        {
          "internalType": "address",
          "name": "",
          "type": "address"
        }
      ],
      "name": "walletVMs",
      "outputs": [
        {
          "internalType": "address",
          "name": "owner",
          "type": "address"
        },
        {
          "internalType": "address",
          "name": "walletVM",
          "type": "address"
        },
        {
          "internalType": "uint256",
          "name": "walletId",
          "type": "uint256"
        },
        {
          "internalType": "uint256",
          "name": "version",
          "type": "uint256"
        },
        {
          "internalType": "uint256",
          "name": "createdAt",
          "type": "uint256"
        },
        {
          "internalType": "uint256",
          "name": "lastActivity",
          "type": "uint256"
        },
        {
          "internalType": "uint256",
          "name": "contributionScore",
          "type": "uint256"
        },
        {
          "internalType": "bool",
          "name": "isActive",
          "type": "bool"
        }
      ],
      "stateMutability": "view",
      "type": "function"
    }
  ],
  "bytecode": "0x60806040526001600355600160045534801561001a57600080fd5b50604051613d7a380380613d7a833981810160405281019061003c919061057c565b33600073ffffffffffffffffffffffffffffffffffffffff168173ffffffffffffffffffffffffffffffffffffffff16036100af5760006040517f1e4fbdf70000000000000000000000000000000000000000000000000000000081526004016100a691906105b8565b60405180910390fd5b6100be816103b560201b60201c565b506001808190555080600260006101000a81548173ffffffffffffffffffffffffffffffffffffffff021916908373ffffffffffffffffffffffffffffffffffffffff16021790555061014b6040518060400160405280601281526020017f62617369635f7472616e73616374696f6e73000000000000000000000000000081525061047960201b60201c565b61018f6040518060400160405280601181526020017f646566695f696e746567726174696f6e7300000000000000000000000000000081525061047960201b60201c565b6101d36040518060400160405280600e81526020017f6e66745f6d616e6167656d656e7400000000000000000000000000000000000081525061047960201b60201c565b6102176040518060400160405280601181526020017f64616f5f70617274696369706174696f6e00000000000000000000000000000081525061047960201b60201c565b61025b6040518060400160405280600d81526020017f7969656c645f6661726d696e670000000000000000000000000000000000000081525061047960201b60201c565b61029f6040518060400160405280601281526020017f63726f73735f636861696e5f627269646765000000000000000000000000000081525061047960201b60201c565b6102e36040518060400160405280600a81526020017f61695f74726164696e670000000000000000000000000000000000000000000081525061047960201b60201c565b6103276040518060400160405280600f81526020017f736f6369616c5f7265636f76657279000000000000000000000000000000000081525061047960201b60201c565b61036b6040518060400160405280600981526020017f6d756c74695f736967000000000000000000000000000000000000000000000081525061047960201b60201c565b6103af6040518060400160405280601181526020017f646174615f636f6e747269627574696f6e00000000000000000000000000000081525061047960201b60201c565b50610972565b60008060009054906101000a900473ffffffffffffffffffffffffffffffffffffffff169050816000806101000a81548173ffffffffffffffffffffffffffffffffffffffff021916908373ffffffffffffffffffffffffffffffffffffffff1602179055508173ffffffffffffffffffffffffffffffffffffffff168173ffffffffffffffffffffffffffffffffffffffff167f8be0079c531659141344cd1fd0a4f28419497f9722a3daafe3b4186f6b6457e060405160405180910390a35050565b600e816040516104899190610644565b908152602001604051809103902060009054906101000a900460ff1661051657600d819080600181540180825580915050600190039060005260206000200160009091909190915090816104dd91906108a0565b506001600e826040516104f09190610644565b908152602001604051809103902060006101000a81548160ff0219169083151502179055505b50565b600080fd5b600073ffffffffffffffffffffffffffffffffffffffff82169050919050565b60006105498261051e565b9050919050565b6105598161053e565b811461056457600080fd5b50565b60008151905061057681610550565b92915050565b60006020828403121561059257610591610519565b5b60006105a084828501610567565b91505092915050565b6105b28161053e565b82525050565b60006020820190506105cd60008301846105a9565b92915050565b600081519050919050565b600081905092915050565b60005b838110156106075780820151818401526020810190506105ec565b60008484015250505050565b600061061e826105d3565b61062881856105de565b93506106388185602086016105e9565b80840191505092915050565b60006106508284610613565b915081905092915050565b7f4e487b7100000000000000000000000000000000000000000000000000000000600052604160045260246000fd5b7f4e487b7100000000000000000000000000000000000000000000000000000000600052602260045260246000fd5b600060028204905060018216806106d157607f821691505b6020821081036106e4576106e361068a565b5b50919050565b60008190508160005260206000209050919050565b60006020601f8301049050919050565b600082821b905092915050565b60006008830261074c7fffffffffffffffffffffffffffffffffffffffffffffffffffffffffffffffff8261070f565b610756868361070f565b95508019841693508086168417925050509392505050565b6000819050919050565b6000819050919050565b600061079d6107986107938461076e565b610778565b61076e565b9050919050565b6000819050919050565b6107b783610782565b6107cb6107c3826107a4565b84845461071c565b825550505050565b600090565b6107e06107d3565b6107eb8184846107ae565b505050565b5b8181101561080f576108046000826107d8565b6001810190506107f1565b5050565b601f82111561085457610825816106ea565b61082e846106ff565b8101602085101561083d578190505b610851610849856106ff565b8301826107f0565b50505b505050565b600082821c905092915050565b600061087760001984600802610859565b1980831691505092915050565b60006108908383610866565b9150826002028217905092915050565b6108a9826105d3565b67ffffffffffffffff8111156108c2576108c161065b565b5b6108cc82546106b9565b6108d7828285610813565b600060209050601f83116001811461090a57600084156108f8578287015190505b6109028582610884565b86555061096a565b601f198416610918866106ea565b60005b828110156109405784890151825560018201915060208501945060208101905061091b565b8683101561095d5784890151610959601f891682610866565b8355505b6001600288020188555050505b505050505050565b6133f9806109816000396000f3fe6080604052600436106101805760003560e01c80639769dfb5116100d1578063c6fba3e01161008a578063db91048c11610064578063db91048c14610592578063e99610b7146105d6578063f2fde38b146105ff578063f6baba841461062857610180565b8063c6fba3e014610501578063cd668fea1461053e578063d71970bb1461056957610180565b80639769dfb5146103d85780639ad54793146104155780639d888e8614610452578063b21b50e91461047d578063bf481e0f146104a8578063c021e0f6146104d357610180565b80636692e8081161013e57806373ba76f61161011857806373ba76f61461033d5780637e13cb2e1461036657806380dc8b06146103705780638da5cb5b146103ad57610180565b80636692e808146102ac5780636797e059146102e9578063715018a61461032657610180565b8062791751146101855780630b3ffd1d146101ae5780630b43b3c1146101d75780632abe31ce146102005780634a662f481461024457806362cdf82f1461026f575b600080fd5b34801561019157600080fd5b506101ac60048036038101906101a79190611f98565b610653565b005b3480156101ba57600080fd5b506101d560048036038101906101d09190611f98565b6107a3565b005b3480156101e357600080fd5b506101fe60048036038101906101f99190612177565b6108b3565b005b34801561020c57600080fd5b5061022760048036038101906102229190611f98565b610b1f565b60405161023b989796959493929190612360565b60405180910390f35b34801561025057600080fd5b50610259610d86565b6040516102669190612449565b60405180910390f35b34801561027b57600080fd5b5061029660048036038101906102919190612464565b610dc8565b6040516102a39190612491565b60405180910390f35b3480156102b857600080fd5b506102d360048036038101906102ce9190612464565b610dfb565b6040516102e091906124f6565b60405180910390f35b3480156102f557600080fd5b50610310600480360381019061030b9190612780565b610ea7565b60405161031d9190612491565b60405180910390f35b34801561033257600080fd5b5061033b61137a565b005b34801561034957600080fd5b50610364600480360381019061035f91906127f8565b61138e565b005b61036e6114dc565b005b34801561037c57600080fd5b5061039760048036038101906103929190611f98565b6114ff565b6040516103a49190612870565b60405180910390f35b3480156103b957600080fd5b506103c2611597565b6040516103cf9190612491565b60405180910390f35b3480156103e457600080fd5b506103ff60048036038101906103fa9190611f98565b6115c0565b60405161040c9190612491565b60405180910390f35b34801561042157600080fd5b5061043c60048036038101906104379190611f98565b6115f3565b6040516104499190612491565b60405180910390f35b34801561045e57600080fd5b5061046761165c565b604051610474919061288b565b60405180910390f35b34801561048957600080fd5b50610492611662565b60405161049f91906128a6565b60405180910390f35b3480156104b457600080fd5b506104bd61173b565b6040516104ca9190612491565b60405180910390f35b3480156104df57600080fd5b506104e8611761565b6040516104f894939291906128c8565b60405180910390f35b34801561050d57600080fd5b506105286004803603810190610523919061290d565b61177f565b6040516105359190612870565b60405180910390f35b34801561054a57600080fd5b506105536117b5565b604051610560919061288b565b60405180910390f35b34801561057557600080fd5b50610590600480360381019061058b9190611f98565b6117bb565b005b34801561059e57600080fd5b506105b960048036038101906105b49190611f98565b61181f565b6040516105cd989796959493929190612956565b60405180910390f35b3480156105e257600080fd5b506105fd60048036038101906105f8919061290d565b6118b4565b005b34801561060b57600080fd5b5061062660048036038101906106219190611f98565b6118c8565b005b34801561063457600080fd5b5061063d61194e565b60405161064a919061288b565b60405180910390f35b8073ffffffffffffffffffffffffffffffffffffffff163373ffffffffffffffffffffffffffffffffffffffff16148061071a57503373ffffffffffffffffffffffffffffffffffffffff16600660008373ffffffffffffffffffffffffffffffffffffffff1673ffffffffffffffffffffffffffffffffffffffff16815260200190815260200160002060000160009054906101000a900473ffffffffffffffffffffffffffffffffffffffff1673ffffffffffffffffffffffffffffffffffffffff16145b610759576040517f08c379a000000000000000000000000000000000000000000000000000000000815260040161075090612a20565b60405180910390fd5b42600660008373ffffffffffffffffffffffffffffffffffffffff1673ffffffffffffffffffffffffffffffffffffffff1681526020019081526020016000206005018190555050565b6107ab611954565b600660008273ffffffffffffffffffffffffffffffffffffffff1673ffffffffffffffffffffffffffffffffffffffff16815260200190815260200160002060070160009054906101000a900460ff1661083a576040517f08c379a000000000000000000000000000000000000000000000000000000000815260040161083190612a8c565b60405180910390fd5b6000600660008373ffffffffffffffffffffffffffffffffffffffff1673ffffffffffffffffffffffffffffffffffffffff16815260200190815260200160002060070160006101000a81548160ff021916908315150217905550600960010160008154809291906108ab90612adb565b919050555050565b6000339050600660008273ffffffffffffffffffffffffffffffffffffffff1673ffffffffffffffffffffffffffffffffffffffff16815260200190815260200160002060070160009054906101000a900460ff16610947576040517f08c379a000000000000000000000000000000000000000000000000000000000815260040161093e90612b50565b60405180910390fd5b600061095384846119db565b905060008111801561096757508060055410155b15610a6657806005600082825461097e9190612b70565b9250508190555080600660008473ffffffffffffffffffffffffffffffffffffffff1673ffffffffffffffffffffffffffffffffffffffff16815260200190815260200160002060060160008282546109d79190612ba4565b9250508190555080600960030160008282546109f39190612ba4565b925050819055508173ffffffffffffffffffffffffffffffffffffffff1663a2c58e9f826040518263ffffffff1660e01b8152600401610a33919061288b565b600060405180830381600087803b158015610a4d57600080fd5b505af1158015610a61573d6000803e3d6000fd5b505050505b60096002016000815480929190610a7c90612bd8565b919050555042600660008473ffffffffffffffffffffffffffffffffffffffff1673ffffffffffffffffffffffffffffffffffffffff168152602001908152602001600020600501819055508173ffffffffffffffffffffffffffffffffffffffff167f475c275d7227805973922d0948c6bd2e7997b6be16cdaa7321474dc63946fed08683604051610b10929190612c2f565b60405180910390a25050505050565b600080600080600080600060606000600760008b73ffffffffffffffffffffffffffffffffffffffff1673ffffffffffffffffffffffffffffffffffffffff16815260200190815260200160002060009054906101000a900473ffffffffffffffffffffffffffffffffffffffff169050600073ffffffffffffffffffffffffffffffffffffffff168173ffffffffffffffffffffffffffffffffffffffff1603610bff576040517f08c379a0000000000000000000000000000000000000000000000000000000008152600401610bf690612ca4565b60405180910390fd5b6000600660008373ffffffffffffffffffffffffffffffffffffffff1673ffffffffffffffffffffffffffffffffffffffff16815260200190815260200160002090508060010160009054906101000a900473ffffffffffffffffffffffffffffffffffffffff16816002015482600301548360040154846005015485600601548660070160009054906101000a900460ff168760080180805480602002602001604051908101604052809291908181526020016000905b82821015610d63578382906000526020600020018054610cd690612cf3565b80601f0160208091040260200160405190810160405280929190818152602001828054610d0290612cf3565b8015610d4f5780601f10610d2457610100808354040283529160200191610d4f565b820191906000526020600020905b815481529060010190602001808311610d3257829003601f168201915b505050505081526020019060010190610cb7565b505050509050995099509950995099509950995099505050919395975091939597565b610d8e611efe565b6009604051806080016040529081600082015481526020016001820154815260200160028201548152602001600382015481525050905090565b60086020528060005260406000206000915054906101000a900473ffffffffffffffffffffffffffffffffffffffff1681565b600d8181548110610e0b57600080fd5b906000526020600020016000915090508054610e2690612cf3565b80601f0160208091040260200160405190810160405280929190818152602001828054610e5290612cf3565b8015610e9f5780601f10610e7457610100808354040283529160200191610e9f565b820191906000526020600020905b815481529060010190602001808311610e8257829003601f168201915b505050505081565b6000610eb1611a61565b600073ffffffffffffffffffffffffffffffffffffffff16600760003373ffffffffffffffffffffffffffffffffffffffff1673ffffffffffffffffffffffffffffffffffffffff16815260200190815260200160002060009054906101000a900473ffffffffffffffffffffffffffffffffffffffff1673ffffffffffffffffffffffffffffffffffffffff1614610f7f576040517f08c379a0000000000000000000000000000000000000000000000000000000008152600401610f7690612d70565b60405180910390fd5b8151835114610fc3576040517f08c379a0000000000000000000000000000000000000000000000000000000008152600401610fba90612ddc565b60405180910390fd5b611004600260009054906101000a900473ffffffffffffffffffffffffffffffffffffffff1673ffffffffffffffffffffffffffffffffffffffff16611aa7565b905060006004600081548092919061101b90612bd8565b9190505590506000600660008473ffffffffffffffffffffffffffffffffffffffff1673ffffffffffffffffffffffffffffffffffffffff1681526020019081526020016000209050338160000160006101000a81548173ffffffffffffffffffffffffffffffffffffffff021916908373ffffffffffffffffffffffffffffffffffffffff160217905550828160010160006101000a81548173ffffffffffffffffffffffffffffffffffffffff021916908373ffffffffffffffffffffffffffffffffffffffff16021790555081816002018190555060035481600301819055504281600401819055504281600501819055506000816006018190555060018160070160006101000a81548160ff02191690831515021790555082600760003373ffffffffffffffffffffffffffffffffffffffff1673ffffffffffffffffffffffffffffffffffffffff16815260200190815260200160002060006101000a81548173ffffffffffffffffffffffffffffffffffffffff021916908373ffffffffffffffffffffffffffffffffffffffff160217905550826008600084815260200190815260200160002060006101000a81548173ffffffffffffffffffffffffffffffffffffffff021916908373ffffffffffffffffffffffffffffffffffffffff1602179055508273ffffffffffffffffffffffffffffffffffffffff1663c350a1b53384306040518463ffffffff1660e01b815260040161124493929190612dfc565b600060405180830381600087803b15801561125e57600080fd5b505af1158015611272573d6000803e3d6000fd5b5050505060005b85518110156112ce576112c18487838151811061129957611298612e33565b5b60200260200101518784815181106112b4576112b3612e33565b5b6020026020010151611abb565b8080600101915050611279565b50600960000160008154809291906112e590612bd8565b91905055506009600101600081548092919061130090612bd8565b91905055508273ffffffffffffffffffffffffffffffffffffffff163373ffffffffffffffffffffffffffffffffffffffff167ff7a8320931a02ce1c071a56b388225363bda0c91025b18b4631eb7841d066d9384604051611362919061288b565b60405180910390a35050611374611c91565b92915050565b611382611954565b61138c6000611c9a565b565b6000600760003373ffffffffffffffffffffffffffffffffffffffff1673ffffffffffffffffffffffffffffffffffffffff16815260200190815260200160002060009054906101000a900473ffffffffffffffffffffffffffffffffffffffff169050600073ffffffffffffffffffffffffffffffffffffffff168173ffffffffffffffffffffffffffffffffffffffff1603611461576040517f08c379a000000000000000000000000000000000000000000000000000000000815260040161145890612ca4565b60405180910390fd5b600e836040516114719190612e9e565b908152602001604051809103902060009054906101000a900460ff166114cc576040517f08c379a00000000000000000000000000000000000000000000000000000000081526004016114c390612f01565b60405180910390fd5b6114d7818484611abb565b505050565b6114e4611954565b34600560008282546114f69190612ba4565b92505081905550565b60008073ffffffffffffffffffffffffffffffffffffffff16600760008473ffffffffffffffffffffffffffffffffffffffff1673ffffffffffffffffffffffffffffffffffffffff16815260200190815260200160002060009054906101000a900473ffffffffffffffffffffffffffffffffffffffff1673ffffffffffffffffffffffffffffffffffffffff1614159050919050565b60008060009054906101000a900473ffffffffffffffffffffffffffffffffffffffff16905090565b60076020528060005260406000206000915054906101000a900473ffffffffffffffffffffffffffffffffffffffff1681565b6000600760008373ffffffffffffffffffffffffffffffffffffffff1673ffffffffffffffffffffffffffffffffffffffff16815260200190815260200160002060009054906101000a900473ffffffffffffffffffffffffffffffffffffffff169050919050565b60035481565b6060600d805480602002602001604051908101604052809291908181526020016000905b828210156117325783829060005260206000200180546116a590612cf3565b80601f01602080910402602001604051908101604052809291908181526020018280546116d190612cf3565b801561171e5780601f106116f35761010080835404028352916020019161171e565b820191906000526020600020905b81548152906001019060200180831161170157829003601f168201915b505050505081526020019060010190611686565b50505050905090565b600260009054906101000a900473ffffffffffffffffffffffffffffffffffffffff1681565b60098060000154908060010154908060020154908060030154905084565b600e818051602081018201805184825260208301602085012081835280955050505050506000915054906101000a900460ff1681565b60045481565b6117c3611954565b80600260006101000a81548173ffffffffffffffffffffffffffffffffffffffff021916908373ffffffffffffffffffffffffffffffffffffffff1602179055506003600081548092919061181790612bd8565b919050555050565b60066020528060005260406000206000915090508060000160009054906101000a900473ffffffffffffffffffffffffffffffffffffffff16908060010160009054906101000a900473ffffffffffffffffffffffffffffffffffffffff16908060020154908060030154908060040154908060050154908060060154908060070160009054906101000a900460ff16905088565b6118bc611954565b6118c581611d5e565b50565b6118d0611954565b600073ffffffffffffffffffffffffffffffffffffffff168173ffffffffffffffffffffffffffffffffffffffff16036119425760006040517f1e4fbdf70000000000000000000000000000000000000000000000000000000081526004016119399190612491565b60405180910390fd5b61194b81611c9a565b50565b60055481565b61195c611dfe565b73ffffffffffffffffffffffffffffffffffffffff1661197a611597565b73ffffffffffffffffffffffffffffffffffffffff16146119d95761199d611dfe565b6040517f118cdaa70000000000000000000000000000000000000000000000000000000081526004016119d09190612491565b60405180910390fd5b565b60008060649050600184036119ff576002816119f79190612f21565b915050611a5b565b60028403611a1c57600381611a149190612f21565b915050611a5b565b60038403611a3957600581611a319190612f21565b915050611a5b565b60048403611a5657600481611a4e9190612f21565b915050611a5b565b809150505b92915050565b600260015403611a9d576040517f3ee5aeb500000000000000000000000000000000000000000000000000000000815260040160405180910390fd5b6002600181905550565b6000611ab4826000611e06565b9050919050565b600e82604051611acb9190612e9e565b908152602001604051809103902060009054906101000a900460ff16611b26576040517f08c379a0000000000000000000000000000000000000000000000000000000008152600401611b1d90612f01565b60405180910390fd5b6000600660008573ffffffffffffffffffffffffffffffffffffffff1673ffffffffffffffffffffffffffffffffffffffff16815260200190815260200160002090508060080183908060018154018082558091505060019003906000526020600020016000909190919091509081611b9f919061310f565b50818160090184604051611bb39190612e9e565b90815260200160405180910390209081611bcd9190613247565b508373ffffffffffffffffffffffffffffffffffffffff166373ba76f684846040518363ffffffff1660e01b8152600401611c09929190613363565b600060405180830381600087803b158015611c2357600080fd5b505af1158015611c37573d6000803e3d6000fd5b505050508373ffffffffffffffffffffffffffffffffffffffff167f6d9dd54461a5915d99a66c122d81e0362382ea5e7deaa72c2fd2dd73566326d38484604051611c83929190613363565b60405180910390a250505050565b60018081905550565b60008060009054906101000a900473ffffffffffffffffffffffffffffffffffffffff169050816000806101000a81548173ffffffffffffffffffffffffffffffffffffffff021916908373ffffffffffffffffffffffffffffffffffffffff1602179055508173ffffffffffffffffffffffffffffffffffffffff168173ffffffffffffffffffffffffffffffffffffffff167f8be0079c531659141344cd1fd0a4f28419497f9722a3daafe3b4186f6b6457e060405160405180910390a35050565b600e81604051611d6e9190612e9e565b908152602001604051809103902060009054906101000a900460ff16611dfb57600d81908060018154018082558091505060019003906000526020600020016000909190919091509081611dc2919061310f565b506001600e82604051611dd59190612e9e565b908152602001604051809103902060006101000a81548160ff0219169083151502179055505b50565b600033905090565b600081471015611e4f5747826040517fcf479181000000000000000000000000000000000000000000000000000000008152600401611e4692919061339a565b60405180910390fd5b763d602d80600a3d3981f3363d3d373d3d3d363d730000008360601b60e81c176000526e5af43d82803e903d91602b57fd5bf38360781b176020526037600983f09050600073ffffffffffffffffffffffffffffffffffffffff168173ffffffffffffffffffffffffffffffffffffffff1603611ef8576040517fb06ebf3d00000000000000000000000000000000000000000000000000000000815260040160405180910390fd5b92915050565b6040518060800160405280600081526020016000815260200160008152602001600081525090565b6000604051905090565b600080fd5b600080fd5b600073ffffffffffffffffffffffffffffffffffffffff82169050919050565b6000611f6582611f3a565b9050919050565b611f7581611f5a565b8114611f8057600080fd5b50565b600081359050611f9281611f6c565b92915050565b600060208284031215611fae57611fad611f30565b5b6000611fbc84828501611f83565b91505092915050565b6000819050919050565b611fd881611fc5565b8114611fe357600080fd5b50565b600081359050611ff581611fcf565b92915050565b6000819050919050565b61200e81611ffb565b811461201957600080fd5b50565b60008135905061202b81612005565b92915050565b600080fd5b600080fd5b6000601f19601f8301169050919050565b7f4e487b7100000000000000000000000000000000000000000000000000000000600052604160045260246000fd5b6120848261203b565b810181811067ffffffffffffffff821117156120a3576120a261204c565b5b80604052505050565b60006120b6611f26565b90506120c2828261207b565b919050565b600067ffffffffffffffff8211156120e2576120e161204c565b5b6120eb8261203b565b9050602081019050919050565b82818337600083830152505050565b600061211a612115846120c7565b6120ac565b90508281526020810184848401111561213657612135612036565b5b6121418482856120f8565b509392505050565b600082601f83011261215e5761215d612031565b5b813561216e848260208601612107565b91505092915050565b6000806000606084860312156121905761218f611f30565b5b600061219e86828701611fe6565b93505060206121af8682870161201c565b925050604084013567ffffffffffffffff8111156121d0576121cf611f35565b5b6121dc86828701612149565b9150509250925092565b6121ef81611f5a565b82525050565b6121fe81611ffb565b82525050565b60008115159050919050565b61221981612204565b82525050565b600081519050919050565b600082825260208201905092915050565b6000819050602082019050919050565b600081519050919050565b600082825260208201905092915050565b60005b8381101561228557808201518184015260208101905061226a565b60008484015250505050565b600061229c8261224b565b6122a68185612256565b93506122b6818560208601612267565b6122bf8161203b565b840191505092915050565b60006122d68383612291565b905092915050565b6000602082019050919050565b60006122f68261221f565b612300818561222a565b9350836020820285016123128561223b565b8060005b8581101561234e578484038952815161232f85826122ca565b945061233a836122de565b925060208a01995050600181019050612316565b50829750879550505050505092915050565b600061010082019050612376600083018b6121e6565b612383602083018a6121f5565b61239060408301896121f5565b61239d60608301886121f5565b6123aa60808301876121f5565b6123b760a08301866121f5565b6123c460c0830185612210565b81810360e08301526123d681846122eb565b90509998505050505050505050565b6123ee81611ffb565b82525050565b60808201600082015161240a60008501826123e5565b50602082015161241d60208501826123e5565b50604082015161243060408501826123e5565b50606082015161244360608501826123e5565b50505050565b600060808201905061245e60008301846123f4565b92915050565b60006020828403121561247a57612479611f30565b5b60006124888482850161201c565b91505092915050565b60006020820190506124a660008301846121e6565b92915050565b600082825260208201905092915050565b60006124c88261224b565b6124d281856124ac565b93506124e2818560208601612267565b6124eb8161203b565b840191505092915050565b6000602082019050818103600083015261251081846124bd565b905092915050565b600067ffffffffffffffff8211156125335761253261204c565b5b602082029050602081019050919050565b600080fd5b600067ffffffffffffffff8211156125645761256361204c565b5b61256d8261203b565b9050602081019050919050565b600061258d61258884612549565b6120ac565b9050828152602081018484840111156125a9576125a8612036565b5b6125b48482856120f8565b509392505050565b600082601f8301126125d1576125d0612031565b5b81356125e184826020860161257a565b91505092915050565b60006125fd6125f884612518565b6120ac565b905080838252602082019050602084028301858111156126205761261f612544565b5b835b8181101561266757803567ffffffffffffffff81111561264557612644612031565b5b80860161265289826125bc565b85526020850194505050602081019050612622565b5050509392505050565b600082601f83011261268657612685612031565b5b81356126968482602086016125ea565b91505092915050565b600067ffffffffffffffff8211156126ba576126b961204c565b5b602082029050602081019050919050565b60006126de6126d98461269f565b6120ac565b9050808382526020820190506020840283018581111561270157612700612544565b5b835b8181101561274857803567ffffffffffffffff81111561272657612725612031565b5b8086016127338982612149565b85526020850194505050602081019050612703565b5050509392505050565b600082601f83011261276757612766612031565b5b81356127778482602086016126cb565b91505092915050565b6000806040838503121561279757612796611f30565b5b600083013567ffffffffffffffff8111156127b5576127b4611f35565b5b6127c185828601612671565b925050602083013567ffffffffffffffff8111156127e2576127e1611f35565b5b6127ee85828601612752565b9150509250929050565b6000806040838503121561280f5761280e611f30565b5b600083013567ffffffffffffffff81111561282d5761282c611f35565b5b612839858286016125bc565b925050602083013567ffffffffffffffff81111561285a57612859611f35565b5b61286685828601612149565b9150509250929050565b60006020820190506128856000830184612210565b92915050565b60006020820190506128a060008301846121f5565b92915050565b600060208201905081810360008301526128c081846122eb565b905092915050565b60006080820190506128dd60008301876121f5565b6128ea60208301866121f5565b6128f760408301856121f5565b61290460608301846121f5565b95945050505050565b60006020828403121561292357612922611f30565b5b600082013567ffffffffffffffff81111561294157612940611f35565b5b61294d848285016125bc565b91505092915050565b60006101008201905061296c600083018b6121e6565b612979602083018a6121e6565b61298660408301896121f5565b61299360608301886121f5565b6129a060808301876121f5565b6129ad60a08301866121f5565b6129ba60c08301856121f5565b6129c760e0830184612210565b9998505050505050505050565b7f556e617574686f72697a65640000000000000000000000000000000000000000600082015250565b6000612a0a600c836124ac565b9150612a15826129d4565b602082019050919050565b60006020820190508181036000830152612a39816129fd565b9050919050565b7f57616c6c657420616c726561647920696e616374697665000000000000000000600082015250565b6000612a766017836124ac565b9150612a8182612a40565b602082019050919050565b60006020820190508181036000830152612aa581612a69565b9050919050565b7f4e487b7100000000000000000000000000000000000000000000000000000000600052601160045260246000fd5b6000612ae682611ffb565b915060008203612af957612af8612aac565b5b600182039050919050565b7f57616c6c657420564d206e6f7420616374697665000000000000000000000000600082015250565b6000612b3a6014836124ac565b9150612b4582612b04565b602082019050919050565b60006020820190508181036000830152612b6981612b2d565b9050919050565b6000612b7b82611ffb565b9150612b8683611ffb565b9250828203905081811115612b9e57612b9d612aac565b5b92915050565b6000612baf82611ffb565b9150612bba83611ffb565b9250828201905080821115612bd257612bd1612aac565b5b92915050565b6000612be382611ffb565b91507fffffffffffffffffffffffffffffffffffffffffffffffffffffffffffffffff8203612c1557612c14612aac565b5b600182019050919050565b612c2981611fc5565b82525050565b6000604082019050612c446000830185612c20565b612c5160208301846121f5565b9392505050565b7f5573657220686173206e6f2077616c6c65740000000000000000000000000000600082015250565b6000612c8e6012836124ac565b9150612c9982612c58565b602082019050919050565b60006020820190508181036000830152612cbd81612c81565b9050919050565b7f4e487b7100000000000000000000000000000000000000000000000000000000600052602260045260246000fd5b60006002820490506001821680612d0b57607f821691505b602082108103612d1e57612d1d612cc4565b5b50919050565b7f5573657220616c72656164792068617320612077616c6c657400000000000000600082015250565b6000612d5a6019836124ac565b9150612d6582612d24565b602082019050919050565b60006020820190508181036000830152612d8981612d4d565b9050919050565b7f46656174757265732f636f6e66696773206c656e677468206d69736d61746368600082015250565b6000612dc66020836124ac565b9150612dd182612d90565b602082019050919050565b60006020820190508181036000830152612df581612db9565b9050919050565b6000606082019050612e1160008301866121e6565b612e1e60208301856121f5565b612e2b60408301846121e6565b949350505050565b7f4e487b7100000000000000000000000000000000000000000000000000000000600052603260045260246000fd5b600081905092915050565b6000612e788261224b565b612e828185612e62565b9350612e92818560208601612267565b80840191505092915050565b6000612eaa8284612e6d565b915081905092915050565b7f46656174757265206e6f7420617661696c61626c650000000000000000000000600082015250565b6000612eeb6015836124ac565b9150612ef682612eb5565b602082019050919050565b60006020820190508181036000830152612f1a81612ede565b9050919050565b6000612f2c82611ffb565b9150612f3783611ffb565b9250828202612f4581611ffb565b91508282048414831517612f5c57612f5b612aac565b5b5092915050565b60008190508160005260206000209050919050565b60006020601f8301049050919050565b600082821b905092915050565b600060088302612fc57fffffffffffffffffffffffffffffffffffffffffffffffffffffffffffffffff82612f88565b612fcf8683612f88565b95508019841693508086168417925050509392505050565b6000819050919050565b600061300c61300761300284611ffb565b612fe7565b611ffb565b9050919050565b6000819050919050565b61302683612ff1565b61303a61303282613013565b848454612f95565b825550505050565b600090565b61304f613042565b61305a81848461301d565b505050565b5b8181101561307e57613073600082613047565b600181019050613060565b5050565b601f8211156130c35761309481612f63565b61309d84612f78565b810160208510156130ac578190505b6130c06130b885612f78565b83018261305f565b50505b505050565b600082821c905092915050565b60006130e6600019846008026130c8565b1980831691505092915050565b60006130ff83836130d5565b9150826002028217905092915050565b6131188261224b565b67ffffffffffffffff8111156131315761313061204c565b5b61313b8254612cf3565b613146828285613082565b600060209050601f8311600181146131795760008415613167578287015190505b61317185826130f3565b8655506131d9565b601f19841661318786612f63565b60005b828110156131af5784890151825560018201915060208501945060208101905061318a565b868310156131cc57848901516131c8601f8916826130d5565b8355505b6001600288020188555050505b505050505050565b600081519050919050565b60008190508160005260206000209050919050565b601f82111561324257613213816131ec565b61321c84612f78565b8101602085101561322b578190505b61323f61323785612f78565b83018261305f565b50505b505050565b613250826131e1565b67ffffffffffffffff8111156132695761326861204c565b5b6132738254612cf3565b61327e828285613201565b600060209050601f8311600181146132b1576000841561329f578287015190505b6132a985826130f3565b865550613311565b601f1984166132bf866131ec565b60005b828110156132e7578489015182556001820191506020850194506020810190506132c2565b868310156133045784890151613300601f8916826130d5565b8355505b6001600288020188555050505b505050505050565b600082825260208201905092915050565b6000613335826131e1565b61333f8185613319565b935061334f818560208601612267565b6133588161203b565b840191505092915050565b6000604082019050818103600083015261337d81856124bd565b90508181036020830152613391818461332a565b90509392505050565b60006040820190506133af60008301856121f5565b6133bc60208301846121f5565b939250505056fea26469706673582212207fdb4510f26e0d2e61481e911f554cd2c8f48a4c772fc5a2ce7333f3baf308c364736f6c634300081c0033",
  "linkReferences": {},
  "deployedLinkReferences": {}
}